{
  "_format": "hh-sol-artifact-1",
  "contractName": "N2DRewards",
  "sourceName": "contracts/N2DRewards.sol",
  "abi": [
    {
      "inputs": [],
      "stateMutability": "nonpayable",
      "type": "constructor"
    },
    {
      "anonymous": false,
      "inputs": [
        {
          "indexed": true,
          "internalType": "address",
          "name": "owner",
          "type": "address"
        },
        {
          "indexed": true,
          "internalType": "address",
          "name": "spender",
          "type": "address"
        },
        {
          "indexed": false,
          "internalType": "uint256",
          "name": "value",
          "type": "uint256"
        }
      ],
      "name": "Approval",
      "type": "event"
    },
    {
      "anonymous": false,
      "inputs": [
        {
          "indexed": true,
          "internalType": "address",
          "name": "previousOwner",
          "type": "address"
        },
        {
          "indexed": true,
          "internalType": "address",
          "name": "newOwner",
          "type": "address"
        }
      ],
      "name": "OwnershipTransferred",
      "type": "event"
    },
    {
      "anonymous": false,
      "inputs": [
        {
          "indexed": true,
          "internalType": "address",
          "name": "from",
          "type": "address"
        },
        {
          "indexed": true,
          "internalType": "address",
          "name": "to",
          "type": "address"
        },
        {
          "indexed": false,
          "internalType": "uint256",
          "name": "value",
          "type": "uint256"
        }
      ],
      "name": "Transfer",
      "type": "event"
    },
    {
      "inputs": [
        {
          "internalType": "address",
          "name": "controller",
          "type": "address"
        }
      ],
      "name": "addController",
      "outputs": [],
      "stateMutability": "nonpayable",
      "type": "function"
    },
    {
      "inputs": [
        {
          "internalType": "address",
          "name": "owner",
          "type": "address"
        },
        {
          "internalType": "address",
          "name": "spender",
          "type": "address"
        }
      ],
      "name": "allowance",
      "outputs": [
        {
          "internalType": "uint256",
          "name": "",
          "type": "uint256"
        }
      ],
      "stateMutability": "view",
      "type": "function"
    },
    {
      "inputs": [
        {
          "internalType": "address",
          "name": "spender",
          "type": "address"
        },
        {
          "internalType": "uint256",
          "name": "amount",
          "type": "uint256"
        }
      ],
      "name": "approve",
      "outputs": [
        {
          "internalType": "bool",
          "name": "",
          "type": "bool"
        }
      ],
      "stateMutability": "nonpayable",
      "type": "function"
    },
    {
      "inputs": [
        {
          "internalType": "address",
          "name": "account",
          "type": "address"
        }
      ],
      "name": "balanceOf",
      "outputs": [
        {
          "internalType": "uint256",
          "name": "",
          "type": "uint256"
        }
      ],
      "stateMutability": "view",
      "type": "function"
    },
    {
      "inputs": [
        {
          "internalType": "uint256",
          "name": "amount",
          "type": "uint256"
        }
      ],
      "name": "burn",
      "outputs": [],
      "stateMutability": "nonpayable",
      "type": "function"
    },
    {
      "inputs": [
        {
          "internalType": "address",
          "name": "account",
          "type": "address"
        },
        {
          "internalType": "uint256",
          "name": "amount",
          "type": "uint256"
        }
      ],
      "name": "burnFrom",
      "outputs": [],
      "stateMutability": "nonpayable",
      "type": "function"
    },
    {
      "inputs": [],
      "name": "decimals",
      "outputs": [
        {
          "internalType": "uint8",
          "name": "",
          "type": "uint8"
        }
      ],
      "stateMutability": "view",
      "type": "function"
    },
    {
      "inputs": [
        {
          "internalType": "address",
          "name": "spender",
          "type": "address"
        },
        {
          "internalType": "uint256",
          "name": "subtractedValue",
          "type": "uint256"
        }
      ],
      "name": "decreaseAllowance",
      "outputs": [
        {
          "internalType": "bool",
          "name": "",
          "type": "bool"
        }
      ],
      "stateMutability": "nonpayable",
      "type": "function"
    },
    {
      "inputs": [
        {
          "internalType": "address",
          "name": "spender",
          "type": "address"
        },
        {
          "internalType": "uint256",
          "name": "addedValue",
          "type": "uint256"
        }
      ],
      "name": "increaseAllowance",
      "outputs": [
        {
          "internalType": "bool",
          "name": "",
          "type": "bool"
        }
      ],
      "stateMutability": "nonpayable",
      "type": "function"
    },
    {
      "inputs": [
        {
          "internalType": "address",
          "name": "to",
          "type": "address"
        },
        {
          "internalType": "uint256",
          "name": "amount",
          "type": "uint256"
        }
      ],
      "name": "mint",
      "outputs": [],
      "stateMutability": "nonpayable",
      "type": "function"
    },
    {
      "inputs": [],
      "name": "name",
      "outputs": [
        {
          "internalType": "string",
          "name": "",
          "type": "string"
        }
      ],
      "stateMutability": "view",
      "type": "function"
    },
    {
      "inputs": [],
      "name": "owner",
      "outputs": [
        {
          "internalType": "address",
          "name": "",
          "type": "address"
        }
      ],
      "stateMutability": "view",
      "type": "function"
    },
    {
      "inputs": [
        {
          "internalType": "address",
          "name": "controller",
          "type": "address"
        }
      ],
      "name": "removeController",
      "outputs": [],
      "stateMutability": "nonpayable",
      "type": "function"
    },
    {
      "inputs": [],
      "name": "renounceOwnership",
      "outputs": [],
      "stateMutability": "nonpayable",
      "type": "function"
    },
    {
      "inputs": [],
      "name": "symbol",
      "outputs": [
        {
          "internalType": "string",
          "name": "",
          "type": "string"
        }
      ],
      "stateMutability": "view",
      "type": "function"
    },
    {
      "inputs": [],
      "name": "totalSupply",
      "outputs": [
        {
          "internalType": "uint256",
          "name": "",
          "type": "uint256"
        }
      ],
      "stateMutability": "view",
      "type": "function"
    },
    {
      "inputs": [
        {
          "internalType": "address",
          "name": "to",
          "type": "address"
        },
        {
          "internalType": "uint256",
          "name": "amount",
          "type": "uint256"
        }
      ],
      "name": "transfer",
      "outputs": [
        {
          "internalType": "bool",
          "name": "",
          "type": "bool"
        }
      ],
      "stateMutability": "nonpayable",
      "type": "function"
    },
    {
      "inputs": [
        {
          "internalType": "address",
          "name": "from",
          "type": "address"
        },
        {
          "internalType": "address",
          "name": "to",
          "type": "address"
        },
        {
          "internalType": "uint256",
          "name": "amount",
          "type": "uint256"
        }
      ],
      "name": "transferFrom",
      "outputs": [
        {
          "internalType": "bool",
          "name": "",
          "type": "bool"
        }
      ],
      "stateMutability": "nonpayable",
      "type": "function"
    },
    {
      "inputs": [
        {
          "internalType": "address",
          "name": "newOwner",
          "type": "address"
        }
      ],
      "name": "transferOwnership",
      "outputs": [],
      "stateMutability": "nonpayable",
      "type": "function"
    }
  ],
  "bytecode": "0x60806040523480156200001157600080fd5b506040518060400160405280600a81526020017f4e324452657761726473000000000000000000000000000000000000000000008152506040518060400160405280600481526020017f4e32445200000000000000000000000000000000000000000000000000000000815250816003908051906020019062000096929190620001a6565b508060049080519060200190620000af929190620001a6565b505050620000d2620000c6620000d860201b60201c565b620000e060201b60201c565b620002bb565b600033905090565b6000600560009054906101000a900473ffffffffffffffffffffffffffffffffffffffff16905081600560006101000a81548173ffffffffffffffffffffffffffffffffffffffff021916908373ffffffffffffffffffffffffffffffffffffffff1602179055508173ffffffffffffffffffffffffffffffffffffffff168173ffffffffffffffffffffffffffffffffffffffff167f8be0079c531659141344cd1fd0a4f28419497f9722a3daafe3b4186f6b6457e060405160405180910390a35050565b828054620001b49062000256565b90600052602060002090601f016020900481019282620001d8576000855562000224565b82601f10620001f357805160ff191683800117855562000224565b8280016001018555821562000224579182015b828111156200022357825182559160200191906001019062000206565b5b50905062000233919062000237565b5090565b5b808211156200025257600081600090555060010162000238565b5090565b600060028204905060018216806200026f57607f821691505b602082108114156200028657620002856200028c565b5b50919050565b7f4e487b7100000000000000000000000000000000000000000000000000000000600052602260045260246000fd5b611e5d80620002cb6000396000f3fe608060405234801561001057600080fd5b50600436106101215760003560e01c8063715018a6116100ad578063a7fc7a0711610071578063a7fc7a071461030a578063a9059cbb14610326578063dd62ed3e14610356578063f2fde38b14610386578063f6a74ed7146103a257610121565b8063715018a61461027857806379cc6790146102825780638da5cb5b1461029e57806395d89b41146102bc578063a457c2d7146102da57610121565b8063313ce567116100f4578063313ce567146101c257806339509351146101e057806340c10f191461021057806342966c681461022c57806370a082311461024857610121565b806306fdde0314610126578063095ea7b31461014457806318160ddd1461017457806323b872dd14610192575b600080fd5b61012e6103be565b60405161013b91906116c7565b60405180910390f35b61015e600480360381019061015991906113f0565b610450565b60405161016b91906116ac565b60405180910390f35b61017c610473565b6040516101899190611889565b60405180910390f35b6101ac60048036038101906101a791906113a1565b61047d565b6040516101b991906116ac565b60405180910390f35b6101ca6104ac565b6040516101d791906118a4565b60405180910390f35b6101fa60048036038101906101f591906113f0565b6104b5565b60405161020791906116ac565b60405180910390f35b61022a600480360381019061022591906113f0565b6104ec565b005b6102466004803603810190610241919061142c565b610586565b005b610262600480360381019061025d919061133c565b61059a565b60405161026f9190611889565b60405180910390f35b6102806105e2565b005b61029c600480360381019061029791906113f0565b6105f6565b005b6102a6610666565b6040516102b39190611691565b60405180910390f35b6102c4610690565b6040516102d191906116c7565b60405180910390f35b6102f460048036038101906102ef91906113f0565b610722565b60405161030191906116ac565b60405180910390f35b610324600480360381019061031f919061133c565b610799565b005b610340600480360381019061033b91906113f0565b6107fc565b60405161034d91906116ac565b60405180910390f35b610370600480360381019061036b9190611365565b61081f565b60405161037d9190611889565b60405180910390f35b6103a0600480360381019061039b919061133c565b6108a6565b005b6103bc60048036038101906103b7919061133c565b61092a565b005b6060600380546103cd906119ed565b80601f01602080910402602001604051908101604052809291908181526020018280546103f9906119ed565b80156104465780601f1061041b57610100808354040283529160200191610446565b820191906000526020600020905b81548152906001019060200180831161042957829003601f168201915b5050505050905090565b60008061045b61098d565b9050610468818585610995565b600191505092915050565b6000600254905090565b60008061048861098d565b9050610495858285610b60565b6104a0858585610bec565b60019150509392505050565b60006012905090565b6000806104c061098d565b90506104e18185856104d2858961081f565b6104dc91906118db565b610995565b600191505092915050565b600660003373ffffffffffffffffffffffffffffffffffffffff1673ffffffffffffffffffffffffffffffffffffffff16815260200190815260200160002060009054906101000a900460ff16610578576040517f08c379a000000000000000000000000000000000000000000000000000000000815260040161056f906117a9565b60405180910390fd5b6105828282610e6d565b5050565b61059761059161098d565b82610fcd565b50565b60008060008373ffffffffffffffffffffffffffffffffffffffff1673ffffffffffffffffffffffffffffffffffffffff168152602001908152602001600020549050919050565b6105ea6111a4565b6105f46000611222565b565b600660003373ffffffffffffffffffffffffffffffffffffffff1673ffffffffffffffffffffffffffffffffffffffff16815260200190815260200160002060009054906101000a900460ff1615610657576106528282610fcd565b610662565b61066182826112e8565b5b5050565b6000600560009054906101000a900473ffffffffffffffffffffffffffffffffffffffff16905090565b60606004805461069f906119ed565b80601f01602080910402602001604051908101604052809291908181526020018280546106cb906119ed565b80156107185780601f106106ed57610100808354040283529160200191610718565b820191906000526020600020905b8154815290600101906020018083116106fb57829003601f168201915b5050505050905090565b60008061072d61098d565b9050600061073b828661081f565b905083811015610780576040517f08c379a000000000000000000000000000000000000000000000000000000000815260040161077790611849565b60405180910390fd5b61078d8286868403610995565b60019250505092915050565b6107a16111a4565b6001600660008373ffffffffffffffffffffffffffffffffffffffff1673ffffffffffffffffffffffffffffffffffffffff16815260200190815260200160002060006101000a81548160ff02191690831515021790555050565b60008061080761098d565b9050610814818585610bec565b600191505092915050565b6000600160008473ffffffffffffffffffffffffffffffffffffffff1673ffffffffffffffffffffffffffffffffffffffff16815260200190815260200160002060008373ffffffffffffffffffffffffffffffffffffffff1673ffffffffffffffffffffffffffffffffffffffff16815260200190815260200160002054905092915050565b6108ae6111a4565b600073ffffffffffffffffffffffffffffffffffffffff168173ffffffffffffffffffffffffffffffffffffffff16141561091e576040517f08c379a000000000000000000000000000000000000000000000000000000000815260040161091590611729565b60405180910390fd5b61092781611222565b50565b6109326111a4565b6000600660008373ffffffffffffffffffffffffffffffffffffffff1673ffffffffffffffffffffffffffffffffffffffff16815260200190815260200160002060006101000a81548160ff02191690831515021790555050565b600033905090565b600073ffffffffffffffffffffffffffffffffffffffff168373ffffffffffffffffffffffffffffffffffffffff161415610a05576040517f08c379a00000000000000000000000000000000000000000000000000000000081526004016109fc90611829565b60405180910390fd5b600073ffffffffffffffffffffffffffffffffffffffff168273ffffffffffffffffffffffffffffffffffffffff161415610a75576040517f08c379a0000000000000000000000000000000000000000000000000000000008152600401610a6c90611749565b60405180910390fd5b80600160008573ffffffffffffffffffffffffffffffffffffffff1673ffffffffffffffffffffffffffffffffffffffff16815260200190815260200160002060008473ffffffffffffffffffffffffffffffffffffffff1673ffffffffffffffffffffffffffffffffffffffff168152602001908152602001600020819055508173ffffffffffffffffffffffffffffffffffffffff168373ffffffffffffffffffffffffffffffffffffffff167f8c5be1e5ebec7d5bd14f71427d1e84f3dd0314c0f7b2291e5b200ac8c7c3b92583604051610b539190611889565b60405180910390a3505050565b6000610b6c848461081f565b90507fffffffffffffffffffffffffffffffffffffffffffffffffffffffffffffffff8114610be65781811015610bd8576040517f08c379a0000000000000000000000000000000000000000000000000000000008152600401610bcf90611769565b60405180910390fd5b610be58484848403610995565b5b50505050565b600073ffffffffffffffffffffffffffffffffffffffff168373ffffffffffffffffffffffffffffffffffffffff161415610c5c576040517f08c379a0000000000000000000000000000000000000000000000000000000008152600401610c5390611809565b60405180910390fd5b600073ffffffffffffffffffffffffffffffffffffffff168273ffffffffffffffffffffffffffffffffffffffff161415610ccc576040517f08c379a0000000000000000000000000000000000000000000000000000000008152600401610cc3906116e9565b60405180910390fd5b610cd7838383611308565b60008060008573ffffffffffffffffffffffffffffffffffffffff1673ffffffffffffffffffffffffffffffffffffffff16815260200190815260200160002054905081811015610d5d576040517f08c379a0000000000000000000000000000000000000000000000000000000008152600401610d5490611789565b60405180910390fd5b8181036000808673ffffffffffffffffffffffffffffffffffffffff1673ffffffffffffffffffffffffffffffffffffffff16815260200190815260200160002081905550816000808573ffffffffffffffffffffffffffffffffffffffff1673ffffffffffffffffffffffffffffffffffffffff1681526020019081526020016000206000828254610df091906118db565b925050819055508273ffffffffffffffffffffffffffffffffffffffff168473ffffffffffffffffffffffffffffffffffffffff167fddf252ad1be2c89b69c2b068fc378daa952ba7f163c4a11628f55a4df523b3ef84604051610e549190611889565b60405180910390a3610e6784848461130d565b50505050565b600073ffffffffffffffffffffffffffffffffffffffff168273ffffffffffffffffffffffffffffffffffffffff161415610edd576040517f08c379a0000000000000000000000000000000000000000000000000000000008152600401610ed490611869565b60405180910390fd5b610ee960008383611308565b8060026000828254610efb91906118db565b92505081905550806000808473ffffffffffffffffffffffffffffffffffffffff1673ffffffffffffffffffffffffffffffffffffffff1681526020019081526020016000206000828254610f5091906118db565b925050819055508173ffffffffffffffffffffffffffffffffffffffff16600073ffffffffffffffffffffffffffffffffffffffff167fddf252ad1be2c89b69c2b068fc378daa952ba7f163c4a11628f55a4df523b3ef83604051610fb59190611889565b60405180910390a3610fc96000838361130d565b5050565b600073ffffffffffffffffffffffffffffffffffffffff168273ffffffffffffffffffffffffffffffffffffffff16141561103d576040517f08c379a0000000000000000000000000000000000000000000000000000000008152600401611034906117e9565b60405180910390fd5b61104982600083611308565b60008060008473ffffffffffffffffffffffffffffffffffffffff1673ffffffffffffffffffffffffffffffffffffffff168152602001908152602001600020549050818110156110cf576040517f08c379a00000000000000000000000000000000000000000000000000000000081526004016110c690611709565b60405180910390fd5b8181036000808573ffffffffffffffffffffffffffffffffffffffff1673ffffffffffffffffffffffffffffffffffffffff1681526020019081526020016000208190555081600260008282546111269190611931565b92505081905550600073ffffffffffffffffffffffffffffffffffffffff168373ffffffffffffffffffffffffffffffffffffffff167fddf252ad1be2c89b69c2b068fc378daa952ba7f163c4a11628f55a4df523b3ef8460405161118b9190611889565b60405180910390a361119f8360008461130d565b505050565b6111ac61098d565b73ffffffffffffffffffffffffffffffffffffffff166111ca610666565b73ffffffffffffffffffffffffffffffffffffffff1614611220576040517f08c379a0000000000000000000000000000000000000000000000000000000008152600401611217906117c9565b60405180910390fd5b565b6000600560009054906101000a900473ffffffffffffffffffffffffffffffffffffffff16905081600560006101000a81548173ffffffffffffffffffffffffffffffffffffffff021916908373ffffffffffffffffffffffffffffffffffffffff1602179055508173ffffffffffffffffffffffffffffffffffffffff168173ffffffffffffffffffffffffffffffffffffffff167f8be0079c531659141344cd1fd0a4f28419497f9722a3daafe3b4186f6b6457e060405160405180910390a35050565b6112fa826112f461098d565b83610b60565b6113048282610fcd565b5050565b505050565b505050565b60008135905061132181611df9565b92915050565b60008135905061133681611e10565b92915050565b60006020828403121561134e57600080fd5b600061135c84828501611312565b91505092915050565b6000806040838503121561137857600080fd5b600061138685828601611312565b925050602061139785828601611312565b9150509250929050565b6000806000606084860312156113b657600080fd5b60006113c486828701611312565b93505060206113d586828701611312565b92505060406113e686828701611327565b9150509250925092565b6000806040838503121561140357600080fd5b600061141185828601611312565b925050602061142285828601611327565b9150509250929050565b60006020828403121561143e57600080fd5b600061144c84828501611327565b91505092915050565b61145e81611965565b82525050565b61146d81611977565b82525050565b600061147e826118bf565b61148881856118ca565b93506114988185602086016119ba565b6114a181611a7d565b840191505092915050565b60006114b96023836118ca565b91506114c482611a8e565b604082019050919050565b60006114dc6022836118ca565b91506114e782611add565b604082019050919050565b60006114ff6026836118ca565b915061150a82611b2c565b604082019050919050565b60006115226022836118ca565b915061152d82611b7b565b604082019050919050565b6000611545601d836118ca565b915061155082611bca565b602082019050919050565b60006115686026836118ca565b915061157382611bf3565b604082019050919050565b600061158b6019836118ca565b915061159682611c42565b602082019050919050565b60006115ae6020836118ca565b91506115b982611c6b565b602082019050919050565b60006115d16021836118ca565b91506115dc82611c94565b604082019050919050565b60006115f46025836118ca565b91506115ff82611ce3565b604082019050919050565b60006116176024836118ca565b915061162282611d32565b604082019050919050565b600061163a6025836118ca565b915061164582611d81565b604082019050919050565b600061165d601f836118ca565b915061166882611dd0565b602082019050919050565b61167c816119a3565b82525050565b61168b816119ad565b82525050565b60006020820190506116a66000830184611455565b92915050565b60006020820190506116c16000830184611464565b92915050565b600060208201905081810360008301526116e18184611473565b905092915050565b60006020820190508181036000830152611702816114ac565b9050919050565b60006020820190508181036000830152611722816114cf565b9050919050565b60006020820190508181036000830152611742816114f2565b9050919050565b6000602082019050818103600083015261176281611515565b9050919050565b6000602082019050818103600083015261178281611538565b9050919050565b600060208201905081810360008301526117a28161155b565b9050919050565b600060208201905081810360008301526117c28161157e565b9050919050565b600060208201905081810360008301526117e2816115a1565b9050919050565b60006020820190508181036000830152611802816115c4565b9050919050565b60006020820190508181036000830152611822816115e7565b9050919050565b600060208201905081810360008301526118428161160a565b9050919050565b600060208201905081810360008301526118628161162d565b9050919050565b6000602082019050818103600083015261188281611650565b9050919050565b600060208201905061189e6000830184611673565b92915050565b60006020820190506118b96000830184611682565b92915050565b600081519050919050565b600082825260208201905092915050565b60006118e6826119a3565b91506118f1836119a3565b9250827fffffffffffffffffffffffffffffffffffffffffffffffffffffffffffffffff0382111561192657611925611a1f565b5b828201905092915050565b600061193c826119a3565b9150611947836119a3565b92508282101561195a57611959611a1f565b5b828203905092915050565b600061197082611983565b9050919050565b60008115159050919050565b600073ffffffffffffffffffffffffffffffffffffffff82169050919050565b6000819050919050565b600060ff82169050919050565b60005b838110156119d85780820151818401526020810190506119bd565b838111156119e7576000848401525b50505050565b60006002820490506001821680611a0557607f821691505b60208210811415611a1957611a18611a4e565b5b50919050565b7f4e487b7100000000000000000000000000000000000000000000000000000000600052601160045260246000fd5b7f4e487b7100000000000000000000000000000000000000000000000000000000600052602260045260246000fd5b6000601f19601f8301169050919050565b7f45524332303a207472616e7366657220746f20746865207a65726f206164647260008201527f6573730000000000000000000000000000000000000000000000000000000000602082015250565b7f45524332303a206275726e20616d6f756e7420657863656564732062616c616e60008201527f6365000000000000000000000000000000000000000000000000000000000000602082015250565b7f4f776e61626c653a206e6577206f776e657220697320746865207a65726f206160008201527f6464726573730000000000000000000000000000000000000000000000000000602082015250565b7f45524332303a20617070726f766520746f20746865207a65726f20616464726560008201527f7373000000000000000000000000000000000000000000000000000000000000602082015250565b7f45524332303a20696e73756666696369656e7420616c6c6f77616e6365000000600082015250565b7f45524332303a207472616e7366657220616d6f756e742065786365656473206260008201527f616c616e63650000000000000000000000000000000000000000000000000000602082015250565b7f4f6e6c7920636f6e74726f6c6c6572732063616e206d696e7400000000000000600082015250565b7f4f776e61626c653a2063616c6c6572206973206e6f7420746865206f776e6572600082015250565b7f45524332303a206275726e2066726f6d20746865207a65726f2061646472657360008201527f7300000000000000000000000000000000000000000000000000000000000000602082015250565b7f45524332303a207472616e736665722066726f6d20746865207a65726f20616460008201527f6472657373000000000000000000000000000000000000000000000000000000602082015250565b7f45524332303a20617070726f76652066726f6d20746865207a65726f2061646460008201527f7265737300000000000000000000000000000000000000000000000000000000602082015250565b7f45524332303a2064656372656173656420616c6c6f77616e63652062656c6f7760008201527f207a65726f000000000000000000000000000000000000000000000000000000602082015250565b7f45524332303a206d696e7420746f20746865207a65726f206164647265737300600082015250565b611e0281611965565b8114611e0d57600080fd5b50565b611e19816119a3565b8114611e2457600080fd5b5056fea26469706673582212208c10de36adf71853ba730179d553b5def2dc2fd52539cfe65ce03bc08dd0995c64736f6c63430008040033",
  "linkReferences": {},
  "deployedLinkReferences": {}
}