{
  "_format": "hh-sol-artifact-1",
  "contractName": "N2DRewards",
  "sourceName": "contracts/N2DRewards.sol",
  "abi": [
    {
      "inputs": [],
      "stateMutability": "nonpayable",
      "type": "constructor"
    },
    {
      "anonymous": false,
      "inputs": [
        {
          "indexed": true,
          "internalType": "address",
          "name": "owner",
          "type": "address"
        },
        {
          "indexed": true,
          "internalType": "address",
          "name": "spender",
          "type": "address"
        },
        {
          "indexed": false,
          "internalType": "uint256",
          "name": "value",
          "type": "uint256"
        }
      ],
      "name": "Approval",
      "type": "event"
    },
    {
      "anonymous": false,
      "inputs": [
        {
          "indexed": true,
          "internalType": "address",
          "name": "previousOwner",
          "type": "address"
        },
        {
          "indexed": true,
          "internalType": "address",
          "name": "newOwner",
          "type": "address"
        }
      ],
      "name": "OwnershipTransferred",
      "type": "event"
    },
    {
      "anonymous": false,
      "inputs": [
        {
          "indexed": true,
          "internalType": "address",
          "name": "from",
          "type": "address"
        },
        {
          "indexed": true,
          "internalType": "address",
          "name": "to",
          "type": "address"
        },
        {
          "indexed": false,
          "internalType": "uint256",
          "name": "value",
          "type": "uint256"
        }
      ],
      "name": "Transfer",
      "type": "event"
    },
    {
      "inputs": [
        {
          "internalType": "address",
          "name": "controller",
          "type": "address"
        }
      ],
      "name": "addController",
      "outputs": [],
      "stateMutability": "nonpayable",
      "type": "function"
    },
    {
      "inputs": [
        {
          "internalType": "address",
          "name": "owner",
          "type": "address"
        },
        {
          "internalType": "address",
          "name": "spender",
          "type": "address"
        }
      ],
      "name": "allowance",
      "outputs": [
        {
          "internalType": "uint256",
          "name": "",
          "type": "uint256"
        }
      ],
      "stateMutability": "view",
      "type": "function"
    },
    {
      "inputs": [
        {
          "internalType": "address",
          "name": "spender",
          "type": "address"
        },
        {
          "internalType": "uint256",
          "name": "amount",
          "type": "uint256"
        }
      ],
      "name": "approve",
      "outputs": [
        {
          "internalType": "bool",
          "name": "",
          "type": "bool"
        }
      ],
      "stateMutability": "nonpayable",
      "type": "function"
    },
    {
      "inputs": [
        {
          "internalType": "address",
          "name": "account",
          "type": "address"
        }
      ],
      "name": "balanceOf",
      "outputs": [
        {
          "internalType": "uint256",
          "name": "",
          "type": "uint256"
        }
      ],
      "stateMutability": "view",
      "type": "function"
    },
    {
      "inputs": [
        {
          "internalType": "uint256",
          "name": "amount",
          "type": "uint256"
        }
      ],
      "name": "burn",
      "outputs": [],
      "stateMutability": "nonpayable",
      "type": "function"
    },
    {
      "inputs": [
        {
          "internalType": "address",
          "name": "account",
          "type": "address"
        },
        {
          "internalType": "uint256",
          "name": "amount",
          "type": "uint256"
        }
      ],
      "name": "burnFrom",
      "outputs": [],
      "stateMutability": "nonpayable",
      "type": "function"
    },
    {
      "inputs": [],
      "name": "decimals",
      "outputs": [
        {
          "internalType": "uint8",
          "name": "",
          "type": "uint8"
        }
      ],
      "stateMutability": "view",
      "type": "function"
    },
    {
      "inputs": [
        {
          "internalType": "address",
          "name": "spender",
          "type": "address"
        },
        {
          "internalType": "uint256",
          "name": "subtractedValue",
          "type": "uint256"
        }
      ],
      "name": "decreaseAllowance",
      "outputs": [
        {
          "internalType": "bool",
          "name": "",
          "type": "bool"
        }
      ],
      "stateMutability": "nonpayable",
      "type": "function"
    },
    {
      "inputs": [
        {
          "internalType": "address",
          "name": "spender",
          "type": "address"
        },
        {
          "internalType": "uint256",
          "name": "addedValue",
          "type": "uint256"
        }
      ],
      "name": "increaseAllowance",
      "outputs": [
        {
          "internalType": "bool",
          "name": "",
          "type": "bool"
        }
      ],
      "stateMutability": "nonpayable",
      "type": "function"
    },
    {
      "inputs": [
        {
          "internalType": "address",
          "name": "to",
          "type": "address"
        },
        {
          "internalType": "uint256",
          "name": "amount",
          "type": "uint256"
        }
      ],
      "name": "mint",
      "outputs": [],
      "stateMutability": "nonpayable",
      "type": "function"
    },
    {
      "inputs": [],
      "name": "name",
      "outputs": [
        {
          "internalType": "string",
          "name": "",
          "type": "string"
        }
      ],
      "stateMutability": "view",
      "type": "function"
    },
    {
      "inputs": [],
      "name": "owner",
      "outputs": [
        {
          "internalType": "address",
          "name": "",
          "type": "address"
        }
      ],
      "stateMutability": "view",
      "type": "function"
    },
    {
      "inputs": [
        {
          "internalType": "address",
          "name": "controller",
          "type": "address"
        }
      ],
      "name": "removeController",
      "outputs": [],
      "stateMutability": "nonpayable",
      "type": "function"
    },
    {
      "inputs": [],
      "name": "renounceOwnership",
      "outputs": [],
      "stateMutability": "nonpayable",
      "type": "function"
    },
    {
      "inputs": [],
      "name": "symbol",
      "outputs": [
        {
          "internalType": "string",
          "name": "",
          "type": "string"
        }
      ],
      "stateMutability": "view",
      "type": "function"
    },
    {
      "inputs": [],
      "name": "totalSupply",
      "outputs": [
        {
          "internalType": "uint256",
          "name": "",
          "type": "uint256"
        }
      ],
      "stateMutability": "view",
      "type": "function"
    },
    {
      "inputs": [
        {
          "internalType": "address",
          "name": "to",
          "type": "address"
        },
        {
          "internalType": "uint256",
          "name": "amount",
          "type": "uint256"
        }
      ],
      "name": "transfer",
      "outputs": [
        {
          "internalType": "bool",
          "name": "",
          "type": "bool"
        }
      ],
      "stateMutability": "nonpayable",
      "type": "function"
    },
    {
      "inputs": [
        {
          "internalType": "address",
          "name": "from",
          "type": "address"
        },
        {
          "internalType": "address",
          "name": "to",
          "type": "address"
        },
        {
          "internalType": "uint256",
          "name": "amount",
          "type": "uint256"
        }
      ],
      "name": "transferFrom",
      "outputs": [
        {
          "internalType": "bool",
          "name": "",
          "type": "bool"
        }
      ],
      "stateMutability": "nonpayable",
      "type": "function"
    },
    {
      "inputs": [
        {
          "internalType": "address",
          "name": "newOwner",
          "type": "address"
        }
      ],
      "name": "transferOwnership",
      "outputs": [],
      "stateMutability": "nonpayable",
      "type": "function"
    }
  ],
  "bytecode": "0x60806040523480156200001157600080fd5b506040518060400160405280600a81526020017f4e324452657761726473000000000000000000000000000000000000000000008152506040518060400160405280600481526020017f4e32445200000000000000000000000000000000000000000000000000000000815250816003908051906020019062000096929190620001a6565b508060049080519060200190620000af929190620001a6565b505050620000d2620000c6620000d860201b60201c565b620000e060201b60201c565b620002bb565b600033905090565b6000600560009054906101000a900473ffffffffffffffffffffffffffffffffffffffff16905081600560006101000a81548173ffffffffffffffffffffffffffffffffffffffff021916908373ffffffffffffffffffffffffffffffffffffffff1602179055508173ffffffffffffffffffffffffffffffffffffffff168173ffffffffffffffffffffffffffffffffffffffff167f8be0079c531659141344cd1fd0a4f28419497f9722a3daafe3b4186f6b6457e060405160405180910390a35050565b828054620001b49062000256565b90600052602060002090601f016020900481019282620001d8576000855562000224565b82601f10620001f357805160ff191683800117855562000224565b8280016001018555821562000224579182015b828111156200022357825182559160200191906001019062000206565b5b50905062000233919062000237565b5090565b5b808211156200025257600081600090555060010162000238565b5090565b600060028204905060018216806200026f57607f821691505b602082108114156200028657620002856200028c565b5b50919050565b7f4e487b7100000000000000000000000000000000000000000000000000000000600052602260045260246000fd5b611d5580620002cb6000396000f3fe608060405234801561001057600080fd5b50600436106101215760003560e01c8063715018a6116100ad578063a7fc7a0711610071578063a7fc7a071461030a578063a9059cbb14610326578063dd62ed3e14610356578063f2fde38b14610386578063f6a74ed7146103a257610121565b8063715018a61461027857806379cc6790146102825780638da5cb5b1461029e57806395d89b41146102bc578063a457c2d7146102da57610121565b8063313ce567116100f4578063313ce567146101c257806339509351146101e057806340c10f191461021057806342966c681461022c57806370a082311461024857610121565b806306fdde0314610126578063095ea7b31461014457806318160ddd1461017457806323b872dd14610192575b600080fd5b61012e6103be565b60405161013b9190611608565b60405180910390f35b61015e60048036038101906101599190611354565b610450565b60405161016b91906115ed565b60405180910390f35b61017c610473565b60405161018991906117aa565b60405180910390f35b6101ac60048036038101906101a79190611305565b61047d565b6040516101b991906115ed565b60405180910390f35b6101ca6104ac565b6040516101d791906117c5565b60405180910390f35b6101fa60048036038101906101f59190611354565b6104b5565b60405161020791906115ed565b60405180910390f35b61022a60048036038101906102259190611354565b6104ec565b005b61024660048036038101906102419190611390565b6104fa565b005b610262600480360381019061025d91906112a0565b61050e565b60405161026f91906117aa565b60405180910390f35b610280610556565b005b61029c60048036038101906102979190611354565b61056a565b005b6102a66105da565b6040516102b391906115d2565b60405180910390f35b6102c4610604565b6040516102d19190611608565b60405180910390f35b6102f460048036038101906102ef9190611354565b610696565b60405161030191906115ed565b60405180910390f35b610324600480360381019061031f91906112a0565b61070d565b005b610340600480360381019061033b9190611354565b610768565b60405161034d91906115ed565b60405180910390f35b610370600480360381019061036b91906112c9565b61078b565b60405161037d91906117aa565b60405180910390f35b6103a0600480360381019061039b91906112a0565b610812565b005b6103bc60048036038101906103b791906112a0565b610896565b005b6060600380546103cd9061190e565b80601f01602080910402602001604051908101604052809291908181526020018280546103f99061190e565b80156104465780601f1061041b57610100808354040283529160200191610446565b820191906000526020600020905b81548152906001019060200180831161042957829003601f168201915b5050505050905090565b60008061045b6108f1565b90506104688185856108f9565b600191505092915050565b6000600254905090565b6000806104886108f1565b9050610495858285610ac4565b6104a0858585610b50565b60019150509392505050565b60006012905090565b6000806104c06108f1565b90506104e18185856104d2858961078b565b6104dc91906117fc565b6108f9565b600191505092915050565b6104f68282610dd1565b5050565b61050b6105056108f1565b82610f31565b50565b60008060008373ffffffffffffffffffffffffffffffffffffffff1673ffffffffffffffffffffffffffffffffffffffff168152602001908152602001600020549050919050565b61055e611108565b6105686000611186565b565b600660003373ffffffffffffffffffffffffffffffffffffffff1673ffffffffffffffffffffffffffffffffffffffff16815260200190815260200160002060009054906101000a900460ff16156105cb576105c68282610f31565b6105d6565b6105d5828261124c565b5b5050565b6000600560009054906101000a900473ffffffffffffffffffffffffffffffffffffffff16905090565b6060600480546106139061190e565b80601f016020809104026020016040519081016040528092919081815260200182805461063f9061190e565b801561068c5780601f106106615761010080835404028352916020019161068c565b820191906000526020600020905b81548152906001019060200180831161066f57829003601f168201915b5050505050905090565b6000806106a16108f1565b905060006106af828661078b565b9050838110156106f4576040517f08c379a00000000000000000000000000000000000000000000000000000000081526004016106eb9061176a565b60405180910390fd5b61070182868684036108f9565b60019250505092915050565b6001600660008373ffffffffffffffffffffffffffffffffffffffff1673ffffffffffffffffffffffffffffffffffffffff16815260200190815260200160002060006101000a81548160ff02191690831515021790555050565b6000806107736108f1565b9050610780818585610b50565b600191505092915050565b6000600160008473ffffffffffffffffffffffffffffffffffffffff1673ffffffffffffffffffffffffffffffffffffffff16815260200190815260200160002060008373ffffffffffffffffffffffffffffffffffffffff1673ffffffffffffffffffffffffffffffffffffffff16815260200190815260200160002054905092915050565b61081a611108565b600073ffffffffffffffffffffffffffffffffffffffff168173ffffffffffffffffffffffffffffffffffffffff16141561088a576040517f08c379a00000000000000000000000000000000000000000000000000000000081526004016108819061166a565b60405180910390fd5b61089381611186565b50565b6000600660008373ffffffffffffffffffffffffffffffffffffffff1673ffffffffffffffffffffffffffffffffffffffff16815260200190815260200160002060006101000a81548160ff02191690831515021790555050565b600033905090565b600073ffffffffffffffffffffffffffffffffffffffff168373ffffffffffffffffffffffffffffffffffffffff161415610969576040517f08c379a00000000000000000000000000000000000000000000000000000000081526004016109609061174a565b60405180910390fd5b600073ffffffffffffffffffffffffffffffffffffffff168273ffffffffffffffffffffffffffffffffffffffff1614156109d9576040517f08c379a00000000000000000000000000000000000000000000000000000000081526004016109d09061168a565b60405180910390fd5b80600160008573ffffffffffffffffffffffffffffffffffffffff1673ffffffffffffffffffffffffffffffffffffffff16815260200190815260200160002060008473ffffffffffffffffffffffffffffffffffffffff1673ffffffffffffffffffffffffffffffffffffffff168152602001908152602001600020819055508173ffffffffffffffffffffffffffffffffffffffff168373ffffffffffffffffffffffffffffffffffffffff167f8c5be1e5ebec7d5bd14f71427d1e84f3dd0314c0f7b2291e5b200ac8c7c3b92583604051610ab791906117aa565b60405180910390a3505050565b6000610ad0848461078b565b90507fffffffffffffffffffffffffffffffffffffffffffffffffffffffffffffffff8114610b4a5781811015610b3c576040517f08c379a0000000000000000000000000000000000000000000000000000000008152600401610b33906116aa565b60405180910390fd5b610b4984848484036108f9565b5b50505050565b600073ffffffffffffffffffffffffffffffffffffffff168373ffffffffffffffffffffffffffffffffffffffff161415610bc0576040517f08c379a0000000000000000000000000000000000000000000000000000000008152600401610bb79061172a565b60405180910390fd5b600073ffffffffffffffffffffffffffffffffffffffff168273ffffffffffffffffffffffffffffffffffffffff161415610c30576040517f08c379a0000000000000000000000000000000000000000000000000000000008152600401610c279061162a565b60405180910390fd5b610c3b83838361126c565b60008060008573ffffffffffffffffffffffffffffffffffffffff1673ffffffffffffffffffffffffffffffffffffffff16815260200190815260200160002054905081811015610cc1576040517f08c379a0000000000000000000000000000000000000000000000000000000008152600401610cb8906116ca565b60405180910390fd5b8181036000808673ffffffffffffffffffffffffffffffffffffffff1673ffffffffffffffffffffffffffffffffffffffff16815260200190815260200160002081905550816000808573ffffffffffffffffffffffffffffffffffffffff1673ffffffffffffffffffffffffffffffffffffffff1681526020019081526020016000206000828254610d5491906117fc565b925050819055508273ffffffffffffffffffffffffffffffffffffffff168473ffffffffffffffffffffffffffffffffffffffff167fddf252ad1be2c89b69c2b068fc378daa952ba7f163c4a11628f55a4df523b3ef84604051610db891906117aa565b60405180910390a3610dcb848484611271565b50505050565b600073ffffffffffffffffffffffffffffffffffffffff168273ffffffffffffffffffffffffffffffffffffffff161415610e41576040517f08c379a0000000000000000000000000000000000000000000000000000000008152600401610e389061178a565b60405180910390fd5b610e4d6000838361126c565b8060026000828254610e5f91906117fc565b92505081905550806000808473ffffffffffffffffffffffffffffffffffffffff1673ffffffffffffffffffffffffffffffffffffffff1681526020019081526020016000206000828254610eb491906117fc565b925050819055508173ffffffffffffffffffffffffffffffffffffffff16600073ffffffffffffffffffffffffffffffffffffffff167fddf252ad1be2c89b69c2b068fc378daa952ba7f163c4a11628f55a4df523b3ef83604051610f1991906117aa565b60405180910390a3610f2d60008383611271565b5050565b600073ffffffffffffffffffffffffffffffffffffffff168273ffffffffffffffffffffffffffffffffffffffff161415610fa1576040517f08c379a0000000000000000000000000000000000000000000000000000000008152600401610f989061170a565b60405180910390fd5b610fad8260008361126c565b60008060008473ffffffffffffffffffffffffffffffffffffffff1673ffffffffffffffffffffffffffffffffffffffff16815260200190815260200160002054905081811015611033576040517f08c379a000000000000000000000000000000000000000000000000000000000815260040161102a9061164a565b60405180910390fd5b8181036000808573ffffffffffffffffffffffffffffffffffffffff1673ffffffffffffffffffffffffffffffffffffffff16815260200190815260200160002081905550816002600082825461108a9190611852565b92505081905550600073ffffffffffffffffffffffffffffffffffffffff168373ffffffffffffffffffffffffffffffffffffffff167fddf252ad1be2c89b69c2b068fc378daa952ba7f163c4a11628f55a4df523b3ef846040516110ef91906117aa565b60405180910390a361110383600084611271565b505050565b6111106108f1565b73ffffffffffffffffffffffffffffffffffffffff1661112e6105da565b73ffffffffffffffffffffffffffffffffffffffff1614611184576040517f08c379a000000000000000000000000000000000000000000000000000000000815260040161117b906116ea565b60405180910390fd5b565b6000600560009054906101000a900473ffffffffffffffffffffffffffffffffffffffff16905081600560006101000a81548173ffffffffffffffffffffffffffffffffffffffff021916908373ffffffffffffffffffffffffffffffffffffffff1602179055508173ffffffffffffffffffffffffffffffffffffffff168173ffffffffffffffffffffffffffffffffffffffff167f8be0079c531659141344cd1fd0a4f28419497f9722a3daafe3b4186f6b6457e060405160405180910390a35050565b61125e826112586108f1565b83610ac4565b6112688282610f31565b5050565b505050565b505050565b60008135905061128581611cf1565b92915050565b60008135905061129a81611d08565b92915050565b6000602082840312156112b257600080fd5b60006112c084828501611276565b91505092915050565b600080604083850312156112dc57600080fd5b60006112ea85828601611276565b92505060206112fb85828601611276565b9150509250929050565b60008060006060848603121561131a57600080fd5b600061132886828701611276565b935050602061133986828701611276565b925050604061134a8682870161128b565b9150509250925092565b6000806040838503121561136757600080fd5b600061137585828601611276565b92505060206113868582860161128b565b9150509250929050565b6000602082840312156113a257600080fd5b60006113b08482850161128b565b91505092915050565b6113c281611886565b82525050565b6113d181611898565b82525050565b60006113e2826117e0565b6113ec81856117eb565b93506113fc8185602086016118db565b6114058161199e565b840191505092915050565b600061141d6023836117eb565b9150611428826119af565b604082019050919050565b60006114406022836117eb565b915061144b826119fe565b604082019050919050565b60006114636026836117eb565b915061146e82611a4d565b604082019050919050565b60006114866022836117eb565b915061149182611a9c565b604082019050919050565b60006114a9601d836117eb565b91506114b482611aeb565b602082019050919050565b60006114cc6026836117eb565b91506114d782611b14565b604082019050919050565b60006114ef6020836117eb565b91506114fa82611b63565b602082019050919050565b60006115126021836117eb565b915061151d82611b8c565b604082019050919050565b60006115356025836117eb565b915061154082611bdb565b604082019050919050565b60006115586024836117eb565b915061156382611c2a565b604082019050919050565b600061157b6025836117eb565b915061158682611c79565b604082019050919050565b600061159e601f836117eb565b91506115a982611cc8565b602082019050919050565b6115bd816118c4565b82525050565b6115cc816118ce565b82525050565b60006020820190506115e760008301846113b9565b92915050565b600060208201905061160260008301846113c8565b92915050565b6000602082019050818103600083015261162281846113d7565b905092915050565b6000602082019050818103600083015261164381611410565b9050919050565b6000602082019050818103600083015261166381611433565b9050919050565b6000602082019050818103600083015261168381611456565b9050919050565b600060208201905081810360008301526116a381611479565b9050919050565b600060208201905081810360008301526116c38161149c565b9050919050565b600060208201905081810360008301526116e3816114bf565b9050919050565b60006020820190508181036000830152611703816114e2565b9050919050565b6000602082019050818103600083015261172381611505565b9050919050565b6000602082019050818103600083015261174381611528565b9050919050565b600060208201905081810360008301526117638161154b565b9050919050565b600060208201905081810360008301526117838161156e565b9050919050565b600060208201905081810360008301526117a381611591565b9050919050565b60006020820190506117bf60008301846115b4565b92915050565b60006020820190506117da60008301846115c3565b92915050565b600081519050919050565b600082825260208201905092915050565b6000611807826118c4565b9150611812836118c4565b9250827fffffffffffffffffffffffffffffffffffffffffffffffffffffffffffffffff0382111561184757611846611940565b5b828201905092915050565b600061185d826118c4565b9150611868836118c4565b92508282101561187b5761187a611940565b5b828203905092915050565b6000611891826118a4565b9050919050565b60008115159050919050565b600073ffffffffffffffffffffffffffffffffffffffff82169050919050565b6000819050919050565b600060ff82169050919050565b60005b838110156118f95780820151818401526020810190506118de565b83811115611908576000848401525b50505050565b6000600282049050600182168061192657607f821691505b6020821081141561193a5761193961196f565b5b50919050565b7f4e487b7100000000000000000000000000000000000000000000000000000000600052601160045260246000fd5b7f4e487b7100000000000000000000000000000000000000000000000000000000600052602260045260246000fd5b6000601f19601f8301169050919050565b7f45524332303a207472616e7366657220746f20746865207a65726f206164647260008201527f6573730000000000000000000000000000000000000000000000000000000000602082015250565b7f45524332303a206275726e20616d6f756e7420657863656564732062616c616e60008201527f6365000000000000000000000000000000000000000000000000000000000000602082015250565b7f4f776e61626c653a206e6577206f776e657220697320746865207a65726f206160008201527f6464726573730000000000000000000000000000000000000000000000000000602082015250565b7f45524332303a20617070726f766520746f20746865207a65726f20616464726560008201527f7373000000000000000000000000000000000000000000000000000000000000602082015250565b7f45524332303a20696e73756666696369656e7420616c6c6f77616e6365000000600082015250565b7f45524332303a207472616e7366657220616d6f756e742065786365656473206260008201527f616c616e63650000000000000000000000000000000000000000000000000000602082015250565b7f4f776e61626c653a2063616c6c6572206973206e6f7420746865206f776e6572600082015250565b7f45524332303a206275726e2066726f6d20746865207a65726f2061646472657360008201527f7300000000000000000000000000000000000000000000000000000000000000602082015250565b7f45524332303a207472616e736665722066726f6d20746865207a65726f20616460008201527f6472657373000000000000000000000000000000000000000000000000000000602082015250565b7f45524332303a20617070726f76652066726f6d20746865207a65726f2061646460008201527f7265737300000000000000000000000000000000000000000000000000000000602082015250565b7f45524332303a2064656372656173656420616c6c6f77616e63652062656c6f7760008201527f207a65726f000000000000000000000000000000000000000000000000000000602082015250565b7f45524332303a206d696e7420746f20746865207a65726f206164647265737300600082015250565b611cfa81611886565b8114611d0557600080fd5b50565b611d11816118c4565b8114611d1c57600080fd5b5056fea2646970667358221220d19d7a19fa14ac11d316882180cf3ec50fc81226ec5c0778c15647e6faadf97e64736f6c63430008040033",
  "linkReferences": {},
  "deployedLinkReferences": {}
}