{
  "_format": "hh-sol-artifact-1",
  "contractName": "NFTStaking",
  "sourceName": "contracts/NFTStaking.sol",
  "abi": [
    {
      "inputs": [
        {
          "internalType": "contract ERC721Enumerable",
          "name": "_nft",
          "type": "address"
        },
        {
          "internalType": "contract N2DRewards",
          "name": "_token",
          "type": "address"
        }
      ],
      "stateMutability": "nonpayable",
      "type": "constructor"
    },
    {
      "anonymous": false,
      "inputs": [
        {
          "indexed": false,
          "internalType": "address",
          "name": "owner",
          "type": "address"
        },
        {
          "indexed": false,
          "internalType": "uint256",
          "name": "amount",
          "type": "uint256"
        }
      ],
      "name": "Claimed",
      "type": "event"
    },
    {
      "anonymous": false,
      "inputs": [
        {
          "indexed": false,
          "internalType": "address",
          "name": "owner",
          "type": "address"
        },
        {
          "indexed": false,
          "internalType": "uint256",
          "name": "tokenId",
          "type": "uint256"
        },
        {
          "indexed": false,
          "internalType": "uint256",
          "name": "value",
          "type": "uint256"
        }
      ],
      "name": "NFTStaked",
      "type": "event"
    },
    {
      "anonymous": false,
      "inputs": [
        {
          "indexed": false,
          "internalType": "address",
          "name": "owner",
          "type": "address"
        },
        {
          "indexed": false,
          "internalType": "uint256",
          "name": "tokenId",
          "type": "uint256"
        },
        {
          "indexed": false,
          "internalType": "uint256",
          "name": "value",
          "type": "uint256"
        }
      ],
      "name": "NFTUnstaked",
      "type": "event"
    },
    {
      "anonymous": false,
      "inputs": [
        {
          "indexed": true,
          "internalType": "address",
          "name": "previousOwner",
          "type": "address"
        },
        {
          "indexed": true,
          "internalType": "address",
          "name": "newOwner",
          "type": "address"
        }
      ],
      "name": "OwnershipTransferred",
      "type": "event"
    },
    {
      "inputs": [
        {
          "internalType": "address",
          "name": "account",
          "type": "address"
        }
      ],
      "name": "balanceOf",
      "outputs": [
        {
          "internalType": "uint256",
          "name": "",
          "type": "uint256"
        }
      ],
      "stateMutability": "view",
      "type": "function"
    },
    {
      "inputs": [
        {
          "internalType": "uint256[]",
          "name": "tokenIds",
          "type": "uint256[]"
        }
      ],
      "name": "claim",
      "outputs": [],
      "stateMutability": "nonpayable",
      "type": "function"
    },
    {
      "inputs": [
        {
          "internalType": "address",
          "name": "account",
          "type": "address"
        },
        {
          "internalType": "uint256[]",
          "name": "tokenIds",
          "type": "uint256[]"
        }
      ],
      "name": "claimForAddress",
      "outputs": [],
      "stateMutability": "nonpayable",
      "type": "function"
    },
    {
      "inputs": [
        {
          "internalType": "address",
          "name": "account",
          "type": "address"
        },
        {
          "internalType": "uint256[]",
          "name": "tokenIds",
          "type": "uint256[]"
        }
      ],
      "name": "earningInfo",
      "outputs": [
        {
          "internalType": "uint256[1]",
          "name": "info",
          "type": "uint256[1]"
        }
      ],
      "stateMutability": "view",
      "type": "function"
    },
    {
      "inputs": [
        {
          "internalType": "address",
          "name": "",
          "type": "address"
        },
        {
          "internalType": "address",
          "name": "from",
          "type": "address"
        },
        {
          "internalType": "uint256",
          "name": "",
          "type": "uint256"
        },
        {
          "internalType": "bytes",
          "name": "",
          "type": "bytes"
        }
      ],
      "name": "onERC721Received",
      "outputs": [
        {
          "internalType": "bytes4",
          "name": "",
          "type": "bytes4"
        }
      ],
      "stateMutability": "pure",
      "type": "function"
    },
    {
      "inputs": [],
      "name": "owner",
      "outputs": [
        {
          "internalType": "address",
          "name": "",
          "type": "address"
        }
      ],
      "stateMutability": "view",
      "type": "function"
    },
    {
      "inputs": [],
      "name": "renounceOwnership",
      "outputs": [],
      "stateMutability": "nonpayable",
      "type": "function"
    },
    {
      "inputs": [
        {
          "internalType": "uint256[]",
          "name": "tokenIds",
          "type": "uint256[]"
        }
      ],
      "name": "stake",
      "outputs": [],
      "stateMutability": "nonpayable",
      "type": "function"
    },
    {
      "inputs": [
        {
          "internalType": "address",
          "name": "account",
          "type": "address"
        }
      ],
      "name": "tokensOfOwner",
      "outputs": [
        {
          "internalType": "uint256[]",
          "name": "ownerTokens",
          "type": "uint256[]"
        }
      ],
      "stateMutability": "view",
      "type": "function"
    },
    {
      "inputs": [],
      "name": "totalStaked",
      "outputs": [
        {
          "internalType": "uint256",
          "name": "",
          "type": "uint256"
        }
      ],
      "stateMutability": "view",
      "type": "function"
    },
    {
      "inputs": [
        {
          "internalType": "address",
          "name": "newOwner",
          "type": "address"
        }
      ],
      "name": "transferOwnership",
      "outputs": [],
      "stateMutability": "nonpayable",
      "type": "function"
    },
    {
      "inputs": [
        {
          "internalType": "uint256[]",
          "name": "tokenIds",
          "type": "uint256[]"
        }
      ],
      "name": "unstake",
      "outputs": [],
      "stateMutability": "nonpayable",
      "type": "function"
    },
    {
      "inputs": [
        {
          "internalType": "uint256",
          "name": "",
          "type": "uint256"
        }
      ],
      "name": "vault",
      "outputs": [
        {
          "internalType": "uint24",
          "name": "tokenId",
          "type": "uint24"
        },
        {
          "internalType": "uint48",
          "name": "timestamp",
          "type": "uint48"
        },
        {
          "internalType": "address",
          "name": "owner",
          "type": "address"
        }
      ],
      "stateMutability": "view",
      "type": "function"
    }
  ],
  "bytecode": "0x60806040523480156200001157600080fd5b50604051620026df380380620026df83398181016040528101906200003791906200026f565b620000576200004b6200017560201b60201c565b6200017d60201b60201c565b81600260006101000a81548173ffffffffffffffffffffffffffffffffffffffff021916908373ffffffffffffffffffffffffffffffffffffffff16021790555080600360006101000a81548173ffffffffffffffffffffffffffffffffffffffff021916908373ffffffffffffffffffffffffffffffffffffffff160217905550600260009054906101000a900473ffffffffffffffffffffffffffffffffffffffff1673ffffffffffffffffffffffffffffffffffffffff1663a22cb4653060016040518363ffffffff1660e01b815260040162000139929190620002d2565b600060405180830381600087803b1580156200015457600080fd5b505af115801562000169573d6000803e3d6000fd5b5050505050506200039b565b600033905090565b60008060009054906101000a900473ffffffffffffffffffffffffffffffffffffffff169050816000806101000a81548173ffffffffffffffffffffffffffffffffffffffff021916908373ffffffffffffffffffffffffffffffffffffffff1602179055508173ffffffffffffffffffffffffffffffffffffffff168173ffffffffffffffffffffffffffffffffffffffff167f8be0079c531659141344cd1fd0a4f28419497f9722a3daafe3b4186f6b6457e060405160405180910390a35050565b600081519050620002528162000367565b92915050565b600081519050620002698162000381565b92915050565b600080604083850312156200028357600080fd5b6000620002938582860162000241565b9250506020620002a68582860162000258565b9150509250929050565b620002bb81620002ff565b82525050565b620002cc8162000313565b82525050565b6000604082019050620002e96000830185620002b0565b620002f86020830184620002c1565b9392505050565b60006200030c8262000347565b9050919050565b60008115159050919050565b60006200032c82620002ff565b9050919050565b60006200034082620002ff565b9050919050565b600073ffffffffffffffffffffffffffffffffffffffff82169050919050565b62000372816200031f565b81146200037e57600080fd5b50565b6200038c8162000333565b81146200039857600080fd5b50565b61233480620003ab6000396000f3fe608060405234801561001057600080fd5b50600436106100cf5760003560e01c8063817b1cd21161008c5780638da5cb5b116100665780638da5cb5b14610226578063c36be35714610244578063e449f34114610260578063f2fde38b1461027c576100cf565b8063817b1cd2146101a657806381a36fb6146101c45780638462151c146101f6576100cf565b80630fbf0a93146100d4578063150b7a02146100f05780636ba4c1381461012057806370a082311461013c578063715018a61461016c5780637e75dd6014610176575b600080fd5b6100ee60048036038101906100e991906119e2565b610298565b005b61010a6004803603810190610105919061190a565b6106eb565b6040516101179190611d99565b60405180910390f35b61013a600480360381019061013591906119e2565b61076e565b005b610156600480360381019061015191906118b8565b61077f565b6040516101639190611eab565b60405180910390f35b6101746108d0565b005b610190600480360381019061018b919061198a565b6108e4565b60405161019d9190611d5c565b60405180910390f35b6101ae610b10565b6040516101bb9190611eab565b60405180910390f35b6101de60048036038101906101d99190611a27565b610b16565b6040516101ed93929190611e74565b60405180910390f35b610210600480360381019061020b91906118b8565b610b81565b60405161021d9190611d77565b60405180910390f35b61022e610ecb565b60405161023b9190611c81565b60405180910390f35b61025e6004803603810190610259919061198a565b610ef4565b005b61027a600480360381019061027591906119e2565b610f06565b005b610296600480360381019061029191906118b8565b610f17565b005b600260009054906101000a900473ffffffffffffffffffffffffffffffffffffffff1673ffffffffffffffffffffffffffffffffffffffff1663a22cb4653060016040518363ffffffff1660e01b81526004016102f6929190611cd3565b600060405180830381600087803b15801561031057600080fd5b505af1158015610324573d6000803e3d6000fd5b505050506000828290506001600082825461033f9190611f3d565b9250508190555060005b838390508110156106e55783838281811061038d577f4e487b7100000000000000000000000000000000000000000000000000000000600052603260045260246000fd5b9050602002013591503373ffffffffffffffffffffffffffffffffffffffff16600260009054906101000a900473ffffffffffffffffffffffffffffffffffffffff1673ffffffffffffffffffffffffffffffffffffffff16636352211e846040518263ffffffff1660e01b81526004016104089190611eab565b60206040518083038186803b15801561042057600080fd5b505afa158015610434573d6000803e3d6000fd5b505050506040513d601f19601f8201168201806040525081019061045891906118e1565b73ffffffffffffffffffffffffffffffffffffffff16146104ae576040517f08c379a00000000000000000000000000000000000000000000000000000000081526004016104a590611dd4565b60405180910390fd5b60006004600084815260200190815260200160002060000160009054906101000a900462ffffff1662ffffff161461051b576040517f08c379a000000000000000000000000000000000000000000000000000000000815260040161051290611e54565b60405180910390fd5b600260009054906101000a900473ffffffffffffffffffffffffffffffffffffffff1673ffffffffffffffffffffffffffffffffffffffff166323b872dd3330856040518463ffffffff1660e01b815260040161057a93929190611c9c565b600060405180830381600087803b15801561059457600080fd5b505af11580156105a8573d6000803e3d6000fd5b505050507f36b3725f1783bad4ff05b7f4c077c3aa68eeb23a4d054ba189db4d01ac278d393383426040516105df93929190611d25565b60405180910390a160405180606001604052808362ffffff1681526020014265ffffffffffff1681526020013373ffffffffffffffffffffffffffffffffffffffff168152506004600084815260200190815260200160002060008201518160000160006101000a81548162ffffff021916908362ffffff16021790555060208201518160000160036101000a81548165ffffffffffff021916908365ffffffffffff16021790555060408201518160000160096101000a81548173ffffffffffffffffffffffffffffffffffffffff021916908373ffffffffffffffffffffffffffffffffffffffff16021790555090505080806106dd906120e7565b915050610349565b50505050565b60008073ffffffffffffffffffffffffffffffffffffffff168573ffffffffffffffffffffffffffffffffffffffff161461075b576040517f08c379a000000000000000000000000000000000000000000000000000000000815260040161075290611e34565b60405180910390fd5b63150b7a0260e01b905095945050505050565b61077b3383836000610f9b565b5050565b600080600090506000600260009054906101000a900473ffffffffffffffffffffffffffffffffffffffff1673ffffffffffffffffffffffffffffffffffffffff166318160ddd6040518163ffffffff1660e01b815260040160206040518083038186803b1580156107f057600080fd5b505afa158015610804573d6000803e3d6000fd5b505050506040513d601f19601f820116820180604052508101906108289190611a50565b90506000600190505b8181116108c5578473ffffffffffffffffffffffffffffffffffffffff166004600083815260200190815260200160002060000160099054906101000a900473ffffffffffffffffffffffffffffffffffffffff1673ffffffffffffffffffffffffffffffffffffffff1614156108b2576001836108af9190611f3d565b92505b80806108bd906120e7565b915050610831565b508192505050919050565b6108d861136a565b6108e260006113e8565b565b6108ec6117ae565b600080600090506000805b86869050811015610ae25786868281811061093b577f4e487b7100000000000000000000000000000000000000000000000000000000600052603260045260246000fd5b9050602002013593506000600460008681526020019081526020016000206040518060600160405290816000820160009054906101000a900462ffffff1662ffffff1662ffffff1681526020016000820160039054906101000a900465ffffffffffff1665ffffffffffff1665ffffffffffff1681526020016000820160099054906101000a900473ffffffffffffffffffffffffffffffffffffffff1673ffffffffffffffffffffffffffffffffffffffff1673ffffffffffffffffffffffffffffffffffffffff168152505090508873ffffffffffffffffffffffffffffffffffffffff16816040015173ffffffffffffffffffffffffffffffffffffffff1614610a7d576040517f08c379a0000000000000000000000000000000000000000000000000000000008152600401610a7490611e14565b60405180910390fd5b6000816020015165ffffffffffff169050620151808142610a9e919061201e565b68056bc75e2d63100000610ab29190611fc4565b610abc9190611f93565b9350606484610acb9190611f93565b945050508080610ada906120e7565b9150506108f7565b506000821115610b05576040518060200160405280838152509350505050610b09565b5050505b9392505050565b60015481565b60046020528060005260406000206000915090508060000160009054906101000a900462ffffff16908060000160039054906101000a900465ffffffffffff16908060000160099054906101000a900473ffffffffffffffffffffffffffffffffffffffff16905083565b60606000600260009054906101000a900473ffffffffffffffffffffffffffffffffffffffff1673ffffffffffffffffffffffffffffffffffffffff166318160ddd6040518163ffffffff1660e01b815260040160206040518083038186803b158015610bed57600080fd5b505afa158015610c01573d6000803e3d6000fd5b505050506040513d601f19601f82011682018060405250810190610c259190611a50565b905060008167ffffffffffffffff811115610c69577f4e487b7100000000000000000000000000000000000000000000000000000000600052604160045260246000fd5b604051908082528060200260200182016040528015610c975781602001602082028036833780820191505090505b509050600080600190505b838111610da6578573ffffffffffffffffffffffffffffffffffffffff166004600083815260200190815260200160002060000160099054906101000a900473ffffffffffffffffffffffffffffffffffffffff1673ffffffffffffffffffffffffffffffffffffffff161415610d93576004600082815260200190815260200160002060000160009054906101000a900462ffffff1662ffffff16838381518110610d77577f4e487b7100000000000000000000000000000000000000000000000000000000600052603260045260246000fd5b602002602001018181525050600182610d909190611f3d565b91505b8080610d9e906120e7565b915050610ca2565b5060008167ffffffffffffffff811115610de9577f4e487b7100000000000000000000000000000000000000000000000000000000600052604160045260246000fd5b604051908082528060200260200182016040528015610e175781602001602082028036833780820191505090505b50905060005b82811015610ebe57838181518110610e5e577f4e487b7100000000000000000000000000000000000000000000000000000000600052603260045260246000fd5b6020026020010151828281518110610e9f577f4e487b7100000000000000000000000000000000000000000000000000000000600052603260045260246000fd5b6020026020010181815250508080610eb6906120e7565b915050610e1d565b5080945050505050919050565b60008060009054906101000a900473ffffffffffffffffffffffffffffffffffffffff16905090565b610f018383836000610f9b565b505050565b610f133383836001610f9b565b5050565b610f1f61136a565b600073ffffffffffffffffffffffffffffffffffffffff168173ffffffffffffffffffffffffffffffffffffffff161415610f8f576040517f08c379a0000000000000000000000000000000000000000000000000000000008152600401610f8690611db4565b60405180910390fd5b610f98816113e8565b50565b600080600090506000805b8686905081101561127c57868682818110610fea577f4e487b7100000000000000000000000000000000000000000000000000000000600052603260045260246000fd5b9050602002013593506000600460008681526020019081526020016000206040518060600160405290816000820160009054906101000a900462ffffff1662ffffff1662ffffff1681526020016000820160039054906101000a900465ffffffffffff1665ffffffffffff1665ffffffffffff1681526020016000820160099054906101000a900473ffffffffffffffffffffffffffffffffffffffff1673ffffffffffffffffffffffffffffffffffffffff1673ffffffffffffffffffffffffffffffffffffffff168152505090508873ffffffffffffffffffffffffffffffffffffffff16816040015173ffffffffffffffffffffffffffffffffffffffff161461112c576040517f08c379a000000000000000000000000000000000000000000000000000000000815260040161112390611e14565b60405180910390fd5b6000816020015165ffffffffffff16905062015180814261114d919061201e565b68056bc75e2d631000006111619190611fc4565b61116b9190611f93565b935060648461117a9190611f93565b945060405180606001604052808762ffffff1681526020014265ffffffffffff1681526020018b73ffffffffffffffffffffffffffffffffffffffff168152506004600088815260200190815260200160002060008201518160000160006101000a81548162ffffff021916908362ffffff16021790555060208201518160000160036101000a81548165ffffffffffff021916908365ffffffffffff16021790555060408201518160000160096101000a81548173ffffffffffffffffffffffffffffffffffffffff021916908373ffffffffffffffffffffffffffffffffffffffff16021790555090505050508080611274906120e7565b915050610fa6565b50600082111561131657600360009054906101000a900473ffffffffffffffffffffffffffffffffffffffff1673ffffffffffffffffffffffffffffffffffffffff166340c10f1988846040518363ffffffff1660e01b81526004016112e3929190611cfc565b600060405180830381600087803b1580156112fd57600080fd5b505af1158015611311573d6000803e3d6000fd5b505050505b8315611328576113278787876114ac565b5b7fd8138f8a3f377c5259ca548e70e4c2de94f129f5a11036a15b69513cba2b426a8783604051611359929190611cfc565b60405180910390a150505050505050565b6113726117a6565b73ffffffffffffffffffffffffffffffffffffffff16611390610ecb565b73ffffffffffffffffffffffffffffffffffffffff16146113e6576040517f08c379a00000000000000000000000000000000000000000000000000000000081526004016113dd90611df4565b60405180910390fd5b565b60008060009054906101000a900473ffffffffffffffffffffffffffffffffffffffff169050816000806101000a81548173ffffffffffffffffffffffffffffffffffffffff021916908373ffffffffffffffffffffffffffffffffffffffff1602179055508173ffffffffffffffffffffffffffffffffffffffff168173ffffffffffffffffffffffffffffffffffffffff167f8be0079c531659141344cd1fd0a4f28419497f9722a3daafe3b4186f6b6457e060405160405180910390a35050565b600082829050600160008282546114c3919061201e565b9250508190555060005b8383905081101561179f57838382818110611511577f4e487b7100000000000000000000000000000000000000000000000000000000600052603260045260246000fd5b9050602002013591506000600460008481526020019081526020016000206040518060600160405290816000820160009054906101000a900462ffffff1662ffffff1662ffffff1681526020016000820160039054906101000a900465ffffffffffff1665ffffffffffff1665ffffffffffff1681526020016000820160099054906101000a900473ffffffffffffffffffffffffffffffffffffffff1673ffffffffffffffffffffffffffffffffffffffff1673ffffffffffffffffffffffffffffffffffffffff168152505090503373ffffffffffffffffffffffffffffffffffffffff16816040015173ffffffffffffffffffffffffffffffffffffffff1614611653576040517f08c379a000000000000000000000000000000000000000000000000000000000815260040161164a90611e14565b60405180910390fd5b60046000848152602001908152602001600020600080820160006101000a81549062ffffff02191690556000820160036101000a81549065ffffffffffff02191690556000820160096101000a81549073ffffffffffffffffffffffffffffffffffffffff021916905550507fc486b9458a8637650d84d262414833a5a457bc91ae86b7da110386c8c3fa255b8684426040516116f293929190611d25565b60405180910390a1600260009054906101000a900473ffffffffffffffffffffffffffffffffffffffff1673ffffffffffffffffffffffffffffffffffffffff166323b872dd3088866040518463ffffffff1660e01b815260040161175993929190611c9c565b600060405180830381600087803b15801561177357600080fd5b505af1158015611787573d6000803e3d6000fd5b50505050508080611797906120e7565b9150506114cd565b5050505050565b600033905090565b6040518060200160405280600190602082028036833780820191505090505090565b6000813590506117df816122d0565b92915050565b6000815190506117f4816122d0565b92915050565b60008083601f84011261180c57600080fd5b8235905067ffffffffffffffff81111561182557600080fd5b60208301915083602082028301111561183d57600080fd5b9250929050565b60008083601f84011261185657600080fd5b8235905067ffffffffffffffff81111561186f57600080fd5b60208301915083600182028301111561188757600080fd5b9250929050565b60008135905061189d816122e7565b92915050565b6000815190506118b2816122e7565b92915050565b6000602082840312156118ca57600080fd5b60006118d8848285016117d0565b91505092915050565b6000602082840312156118f357600080fd5b6000611901848285016117e5565b91505092915050565b60008060008060006080868803121561192257600080fd5b6000611930888289016117d0565b9550506020611941888289016117d0565b94505060406119528882890161188e565b935050606086013567ffffffffffffffff81111561196f57600080fd5b61197b88828901611844565b92509250509295509295909350565b60008060006040848603121561199f57600080fd5b60006119ad868287016117d0565b935050602084013567ffffffffffffffff8111156119ca57600080fd5b6119d6868287016117fa565b92509250509250925092565b600080602083850312156119f557600080fd5b600083013567ffffffffffffffff811115611a0f57600080fd5b611a1b858286016117fa565b92509250509250929050565b600060208284031215611a3957600080fd5b6000611a478482850161188e565b91505092915050565b600060208284031215611a6257600080fd5b6000611a70848285016118a3565b91505092915050565b6000611a858383611c54565b60208301905092915050565b611a9a81612052565b82525050565b611aa981611ee0565b611ab38184611f10565b9250611abe82611ec6565b8060005b83811015611aef578151611ad68782611a79565b9650611ae183611ef6565b925050600181019050611ac2565b505050505050565b6000611b0282611eeb565b611b0c8185611f1b565b9350611b1783611ed0565b8060005b83811015611b48578151611b2f8882611a79565b9750611b3a83611f03565b925050600181019050611b1b565b5085935050505092915050565b611b5e81612064565b82525050565b611b6d81612070565b82525050565b6000611b80602683611f2c565b9150611b8b8261218e565b604082019050919050565b6000611ba3600e83611f2c565b9150611bae826121dd565b602082019050919050565b6000611bc6602083611f2c565b9150611bd182612206565b602082019050919050565b6000611be9600c83611f2c565b9150611bf48261222f565b602082019050919050565b6000611c0c602283611f2c565b9150611c1782612258565b604082019050919050565b6000611c2f600e83611f2c565b9150611c3a826122a7565b602082019050919050565b611c4e816120bc565b82525050565b611c5d816120cb565b82525050565b611c6c816120cb565b82525050565b611c7b816120d5565b82525050565b6000602082019050611c966000830184611a91565b92915050565b6000606082019050611cb16000830186611a91565b611cbe6020830185611a91565b611ccb6040830184611c63565b949350505050565b6000604082019050611ce86000830185611a91565b611cf56020830184611b55565b9392505050565b6000604082019050611d116000830185611a91565b611d1e6020830184611c63565b9392505050565b6000606082019050611d3a6000830186611a91565b611d476020830185611c63565b611d546040830184611c63565b949350505050565b6000602082019050611d716000830184611aa0565b92915050565b60006020820190508181036000830152611d918184611af7565b905092915050565b6000602082019050611dae6000830184611b64565b92915050565b60006020820190508181036000830152611dcd81611b73565b9050919050565b60006020820190508181036000830152611ded81611b96565b9050919050565b60006020820190508181036000830152611e0d81611bb9565b9050919050565b60006020820190508181036000830152611e2d81611bdc565b9050919050565b60006020820190508181036000830152611e4d81611bff565b9050919050565b60006020820190508181036000830152611e6d81611c22565b9050919050565b6000606082019050611e896000830186611c45565b611e966020830185611c72565b611ea36040830184611a91565b949350505050565b6000602082019050611ec06000830184611c63565b92915050565b6000819050919050565b6000819050602082019050919050565b600060019050919050565b600081519050919050565b6000602082019050919050565b6000602082019050919050565b600081905092915050565b600082825260208201905092915050565b600082825260208201905092915050565b6000611f48826120cb565b9150611f53836120cb565b9250827fffffffffffffffffffffffffffffffffffffffffffffffffffffffffffffffff03821115611f8857611f87612130565b5b828201905092915050565b6000611f9e826120cb565b9150611fa9836120cb565b925082611fb957611fb861215f565b5b828204905092915050565b6000611fcf826120cb565b9150611fda836120cb565b9250817fffffffffffffffffffffffffffffffffffffffffffffffffffffffffffffffff048311821515161561201357612012612130565b5b828202905092915050565b6000612029826120cb565b9150612034836120cb565b92508282101561204757612046612130565b5b828203905092915050565b600061205d8261209c565b9050919050565b60008115159050919050565b60007fffffffff0000000000000000000000000000000000000000000000000000000082169050919050565b600073ffffffffffffffffffffffffffffffffffffffff82169050919050565b600062ffffff82169050919050565b6000819050919050565b600065ffffffffffff82169050919050565b60006120f2826120cb565b91507fffffffffffffffffffffffffffffffffffffffffffffffffffffffffffffffff82141561212557612124612130565b5b600182019050919050565b7f4e487b7100000000000000000000000000000000000000000000000000000000600052601160045260246000fd5b7f4e487b7100000000000000000000000000000000000000000000000000000000600052601260045260246000fd5b7f4f776e61626c653a206e6577206f776e657220697320746865207a65726f206160008201527f6464726573730000000000000000000000000000000000000000000000000000602082015250565b7f6e6f7420796f757220746f6b656e000000000000000000000000000000000000600082015250565b7f4f776e61626c653a2063616c6c6572206973206e6f7420746865206f776e6572600082015250565b7f6e6f7420616e206f776e65720000000000000000000000000000000000000000600082015250565b7f43616e6e6f742073656e64206e66747320746f205661756c742064697265637460008201527f6c79000000000000000000000000000000000000000000000000000000000000602082015250565b7f616c7265616479207374616b6564000000000000000000000000000000000000600082015250565b6122d981612052565b81146122e457600080fd5b50565b6122f0816120cb565b81146122fb57600080fd5b5056fea26469706673582212207bcf13bed028a5477d270e71073754db1c56a91e3bafacc4404b04d7ec1f087764736f6c63430008040033",
  "linkReferences": {},
  "deployedLinkReferences": {}
}