{
  "_format": "hh-sol-artifact-1",
  "contractName": "NFTStaking",
  "sourceName": "contracts/NFTStaking.sol",
  "abi": [
    {
      "inputs": [
        {
          "internalType": "contract ERC721Enumerable",
          "name": "_nft",
          "type": "address"
        },
        {
          "internalType": "contract N2DRewards",
          "name": "_token",
          "type": "address"
        }
      ],
      "stateMutability": "nonpayable",
      "type": "constructor"
    },
    {
      "anonymous": false,
      "inputs": [
        {
          "indexed": false,
          "internalType": "address",
          "name": "owner",
          "type": "address"
        },
        {
          "indexed": false,
          "internalType": "uint256",
          "name": "amount",
          "type": "uint256"
        }
      ],
      "name": "Claimed",
      "type": "event"
    },
    {
      "anonymous": false,
      "inputs": [
        {
          "indexed": false,
          "internalType": "address",
          "name": "owner",
          "type": "address"
        },
        {
          "indexed": false,
          "internalType": "uint256",
          "name": "tokenId",
          "type": "uint256"
        },
        {
          "indexed": false,
          "internalType": "uint256",
          "name": "value",
          "type": "uint256"
        }
      ],
      "name": "NFTStaked",
      "type": "event"
    },
    {
      "anonymous": false,
      "inputs": [
        {
          "indexed": false,
          "internalType": "address",
          "name": "owner",
          "type": "address"
        },
        {
          "indexed": false,
          "internalType": "uint256",
          "name": "tokenId",
          "type": "uint256"
        },
        {
          "indexed": false,
          "internalType": "uint256",
          "name": "value",
          "type": "uint256"
        }
      ],
      "name": "NFTUnstaked",
      "type": "event"
    },
    {
      "anonymous": false,
      "inputs": [
        {
          "indexed": true,
          "internalType": "address",
          "name": "previousOwner",
          "type": "address"
        },
        {
          "indexed": true,
          "internalType": "address",
          "name": "newOwner",
          "type": "address"
        }
      ],
      "name": "OwnershipTransferred",
      "type": "event"
    },
    {
      "inputs": [
        {
          "internalType": "address",
          "name": "account",
          "type": "address"
        }
      ],
      "name": "balanceOf",
      "outputs": [
        {
          "internalType": "uint256",
          "name": "",
          "type": "uint256"
        }
      ],
      "stateMutability": "view",
      "type": "function"
    },
    {
      "inputs": [
        {
          "internalType": "uint256[]",
          "name": "tokenIds",
          "type": "uint256[]"
        }
      ],
      "name": "claim",
      "outputs": [],
      "stateMutability": "nonpayable",
      "type": "function"
    },
    {
      "inputs": [
        {
          "internalType": "address",
          "name": "account",
          "type": "address"
        },
        {
          "internalType": "uint256[]",
          "name": "tokenIds",
          "type": "uint256[]"
        }
      ],
      "name": "claimForAddress",
      "outputs": [],
      "stateMutability": "nonpayable",
      "type": "function"
    },
    {
      "inputs": [
        {
          "internalType": "address",
          "name": "account",
          "type": "address"
        },
        {
          "internalType": "uint256[]",
          "name": "tokenIds",
          "type": "uint256[]"
        }
      ],
      "name": "earningInfo",
      "outputs": [
        {
          "internalType": "uint256[1]",
          "name": "info",
          "type": "uint256[1]"
        }
      ],
      "stateMutability": "view",
      "type": "function"
    },
    {
      "inputs": [
        {
          "internalType": "address",
          "name": "",
          "type": "address"
        },
        {
          "internalType": "address",
          "name": "from",
          "type": "address"
        },
        {
          "internalType": "uint256",
          "name": "",
          "type": "uint256"
        },
        {
          "internalType": "bytes",
          "name": "",
          "type": "bytes"
        }
      ],
      "name": "onERC721Received",
      "outputs": [
        {
          "internalType": "bytes4",
          "name": "",
          "type": "bytes4"
        }
      ],
      "stateMutability": "pure",
      "type": "function"
    },
    {
      "inputs": [],
      "name": "owner",
      "outputs": [
        {
          "internalType": "address",
          "name": "",
          "type": "address"
        }
      ],
      "stateMutability": "view",
      "type": "function"
    },
    {
      "inputs": [],
      "name": "renounceOwnership",
      "outputs": [],
      "stateMutability": "nonpayable",
      "type": "function"
    },
    {
      "inputs": [
        {
          "internalType": "uint256[]",
          "name": "tokenIds",
          "type": "uint256[]"
        }
      ],
      "name": "stake",
      "outputs": [],
      "stateMutability": "nonpayable",
      "type": "function"
    },
    {
      "inputs": [
        {
          "internalType": "address",
          "name": "account",
          "type": "address"
        }
      ],
      "name": "tokensOfOwner",
      "outputs": [
        {
          "internalType": "uint256[]",
          "name": "ownerTokens",
          "type": "uint256[]"
        }
      ],
      "stateMutability": "view",
      "type": "function"
    },
    {
      "inputs": [],
      "name": "totalStaked",
      "outputs": [
        {
          "internalType": "uint256",
          "name": "",
          "type": "uint256"
        }
      ],
      "stateMutability": "view",
      "type": "function"
    },
    {
      "inputs": [
        {
          "internalType": "address",
          "name": "newOwner",
          "type": "address"
        }
      ],
      "name": "transferOwnership",
      "outputs": [],
      "stateMutability": "nonpayable",
      "type": "function"
    },
    {
      "inputs": [
        {
          "internalType": "uint256[]",
          "name": "tokenIds",
          "type": "uint256[]"
        }
      ],
      "name": "unstake",
      "outputs": [],
      "stateMutability": "nonpayable",
      "type": "function"
    },
    {
      "inputs": [
        {
          "internalType": "uint256",
          "name": "",
          "type": "uint256"
        }
      ],
      "name": "vault",
      "outputs": [
        {
          "internalType": "uint24",
          "name": "tokenId",
          "type": "uint24"
        },
        {
          "internalType": "uint48",
          "name": "timestamp",
          "type": "uint48"
        },
        {
          "internalType": "address",
          "name": "owner",
          "type": "address"
        }
      ],
      "stateMutability": "view",
      "type": "function"
    }
  ],
  "bytecode": "0x60806040523480156200001157600080fd5b506040516200251c3803806200251c8339818101604052810190620000379190620001db565b620000576200004b620000e160201b60201c565b620000e960201b60201c565b81600260006101000a81548173ffffffffffffffffffffffffffffffffffffffff021916908373ffffffffffffffffffffffffffffffffffffffff16021790555080600360006101000a81548173ffffffffffffffffffffffffffffffffffffffff021916908373ffffffffffffffffffffffffffffffffffffffff1602179055505050620002ac565b600033905090565b60008060009054906101000a900473ffffffffffffffffffffffffffffffffffffffff169050816000806101000a81548173ffffffffffffffffffffffffffffffffffffffff021916908373ffffffffffffffffffffffffffffffffffffffff1602179055508173ffffffffffffffffffffffffffffffffffffffff168173ffffffffffffffffffffffffffffffffffffffff167f8be0079c531659141344cd1fd0a4f28419497f9722a3daafe3b4186f6b6457e060405160405180910390a35050565b600081519050620001be8162000278565b92915050565b600081519050620001d58162000292565b92915050565b60008060408385031215620001ef57600080fd5b6000620001ff85828601620001ad565b92505060206200021285828601620001c4565b9150509250929050565b6000620002298262000258565b9050919050565b60006200023d826200021c565b9050919050565b600062000251826200021c565b9050919050565b600073ffffffffffffffffffffffffffffffffffffffff82169050919050565b620002838162000230565b81146200028f57600080fd5b50565b6200029d8162000244565b8114620002a957600080fd5b50565b61226080620002bc6000396000f3fe608060405234801561001057600080fd5b50600436106100cf5760003560e01c8063817b1cd21161008c5780638da5cb5b116100665780638da5cb5b14610226578063c36be35714610244578063e449f34114610260578063f2fde38b1461027c576100cf565b8063817b1cd2146101a657806381a36fb6146101c45780638462151c146101f6576100cf565b80630fbf0a93146100d4578063150b7a02146100f05780636ba4c1381461012057806370a082311461013c578063715018a61461016c5780637e75dd6014610176575b600080fd5b6100ee60048036038101906100e99190611952565b610298565b005b61010a6004803603810190610105919061187a565b61065b565b6040516101179190611cd1565b60405180910390f35b61013a60048036038101906101359190611952565b6106de565b005b61015660048036038101906101519190611828565b6106ef565b6040516101639190611de3565b60405180910390f35b610174610840565b005b610190600480360381019061018b91906118fa565b610854565b60405161019d9190611c94565b60405180910390f35b6101ae610a80565b6040516101bb9190611de3565b60405180910390f35b6101de60048036038101906101d99190611997565b610a86565b6040516101ed93929190611dac565b60405180910390f35b610210600480360381019061020b9190611828565b610af1565b60405161021d9190611caf565b60405180910390f35b61022e610e3b565b60405161023b9190611be2565b60405180910390f35b61025e600480360381019061025991906118fa565b610e64565b005b61027a60048036038101906102759190611952565b610e76565b005b61029660048036038101906102919190611828565b610e87565b005b600082829050600160008282546102af9190611e75565b9250508190555060005b83839050811015610655578383828181106102fd577f4e487b7100000000000000000000000000000000000000000000000000000000600052603260045260246000fd5b9050602002013591503373ffffffffffffffffffffffffffffffffffffffff16600260009054906101000a900473ffffffffffffffffffffffffffffffffffffffff1673ffffffffffffffffffffffffffffffffffffffff16636352211e846040518263ffffffff1660e01b81526004016103789190611de3565b60206040518083038186803b15801561039057600080fd5b505afa1580156103a4573d6000803e3d6000fd5b505050506040513d601f19601f820116820180604052508101906103c89190611851565b73ffffffffffffffffffffffffffffffffffffffff161461041e576040517f08c379a000000000000000000000000000000000000000000000000000000000815260040161041590611d0c565b60405180910390fd5b60006004600084815260200190815260200160002060000160009054906101000a900462ffffff1662ffffff161461048b576040517f08c379a000000000000000000000000000000000000000000000000000000000815260040161048290611d8c565b60405180910390fd5b600260009054906101000a900473ffffffffffffffffffffffffffffffffffffffff1673ffffffffffffffffffffffffffffffffffffffff166323b872dd3330856040518463ffffffff1660e01b81526004016104ea93929190611bfd565b600060405180830381600087803b15801561050457600080fd5b505af1158015610518573d6000803e3d6000fd5b505050507f36b3725f1783bad4ff05b7f4c077c3aa68eeb23a4d054ba189db4d01ac278d3933834260405161054f93929190611c5d565b60405180910390a160405180606001604052808362ffffff1681526020014265ffffffffffff1681526020013373ffffffffffffffffffffffffffffffffffffffff168152506004600084815260200190815260200160002060008201518160000160006101000a81548162ffffff021916908362ffffff16021790555060208201518160000160036101000a81548165ffffffffffff021916908365ffffffffffff16021790555060408201518160000160096101000a81548173ffffffffffffffffffffffffffffffffffffffff021916908373ffffffffffffffffffffffffffffffffffffffff160217905550905050808061064d90612013565b9150506102b9565b50505050565b60008073ffffffffffffffffffffffffffffffffffffffff168573ffffffffffffffffffffffffffffffffffffffff16146106cb576040517f08c379a00000000000000000000000000000000000000000000000000000000081526004016106c290611d6c565b60405180910390fd5b63150b7a0260e01b905095945050505050565b6106eb3383836000610f0b565b5050565b600080600090506000600260009054906101000a900473ffffffffffffffffffffffffffffffffffffffff1673ffffffffffffffffffffffffffffffffffffffff166318160ddd6040518163ffffffff1660e01b815260040160206040518083038186803b15801561076057600080fd5b505afa158015610774573d6000803e3d6000fd5b505050506040513d601f19601f8201168201806040525081019061079891906119c0565b90506000600190505b818111610835578473ffffffffffffffffffffffffffffffffffffffff166004600083815260200190815260200160002060000160099054906101000a900473ffffffffffffffffffffffffffffffffffffffff1673ffffffffffffffffffffffffffffffffffffffff1614156108225760018361081f9190611e75565b92505b808061082d90612013565b9150506107a1565b508192505050919050565b6108486112da565b6108526000611358565b565b61085c61171e565b600080600090506000805b86869050811015610a52578686828181106108ab577f4e487b7100000000000000000000000000000000000000000000000000000000600052603260045260246000fd5b9050602002013593506000600460008681526020019081526020016000206040518060600160405290816000820160009054906101000a900462ffffff1662ffffff1662ffffff1681526020016000820160039054906101000a900465ffffffffffff1665ffffffffffff1665ffffffffffff1681526020016000820160099054906101000a900473ffffffffffffffffffffffffffffffffffffffff1673ffffffffffffffffffffffffffffffffffffffff1673ffffffffffffffffffffffffffffffffffffffff168152505090508873ffffffffffffffffffffffffffffffffffffffff16816040015173ffffffffffffffffffffffffffffffffffffffff16146109ed576040517f08c379a00000000000000000000000000000000000000000000000000000000081526004016109e490611d4c565b60405180910390fd5b6000816020015165ffffffffffff169050620151808142610a0e9190611f56565b68056bc75e2d63100000610a229190611efc565b610a2c9190611ecb565b9350606484610a3b9190611ecb565b945050508080610a4a90612013565b915050610867565b506000821115610a75576040518060200160405280838152509350505050610a79565b5050505b9392505050565b60015481565b60046020528060005260406000206000915090508060000160009054906101000a900462ffffff16908060000160039054906101000a900465ffffffffffff16908060000160099054906101000a900473ffffffffffffffffffffffffffffffffffffffff16905083565b60606000600260009054906101000a900473ffffffffffffffffffffffffffffffffffffffff1673ffffffffffffffffffffffffffffffffffffffff166318160ddd6040518163ffffffff1660e01b815260040160206040518083038186803b158015610b5d57600080fd5b505afa158015610b71573d6000803e3d6000fd5b505050506040513d601f19601f82011682018060405250810190610b9591906119c0565b905060008167ffffffffffffffff811115610bd9577f4e487b7100000000000000000000000000000000000000000000000000000000600052604160045260246000fd5b604051908082528060200260200182016040528015610c075781602001602082028036833780820191505090505b509050600080600190505b838111610d16578573ffffffffffffffffffffffffffffffffffffffff166004600083815260200190815260200160002060000160099054906101000a900473ffffffffffffffffffffffffffffffffffffffff1673ffffffffffffffffffffffffffffffffffffffff161415610d03576004600082815260200190815260200160002060000160009054906101000a900462ffffff1662ffffff16838381518110610ce7577f4e487b7100000000000000000000000000000000000000000000000000000000600052603260045260246000fd5b602002602001018181525050600182610d009190611e75565b91505b8080610d0e90612013565b915050610c12565b5060008167ffffffffffffffff811115610d59577f4e487b7100000000000000000000000000000000000000000000000000000000600052604160045260246000fd5b604051908082528060200260200182016040528015610d875781602001602082028036833780820191505090505b50905060005b82811015610e2e57838181518110610dce577f4e487b7100000000000000000000000000000000000000000000000000000000600052603260045260246000fd5b6020026020010151828281518110610e0f577f4e487b7100000000000000000000000000000000000000000000000000000000600052603260045260246000fd5b6020026020010181815250508080610e2690612013565b915050610d8d565b5080945050505050919050565b60008060009054906101000a900473ffffffffffffffffffffffffffffffffffffffff16905090565b610e718383836000610f0b565b505050565b610e833383836001610f0b565b5050565b610e8f6112da565b600073ffffffffffffffffffffffffffffffffffffffff168173ffffffffffffffffffffffffffffffffffffffff161415610eff576040517f08c379a0000000000000000000000000000000000000000000000000000000008152600401610ef690611cec565b60405180910390fd5b610f0881611358565b50565b600080600090506000805b868690508110156111ec57868682818110610f5a577f4e487b7100000000000000000000000000000000000000000000000000000000600052603260045260246000fd5b9050602002013593506000600460008681526020019081526020016000206040518060600160405290816000820160009054906101000a900462ffffff1662ffffff1662ffffff1681526020016000820160039054906101000a900465ffffffffffff1665ffffffffffff1665ffffffffffff1681526020016000820160099054906101000a900473ffffffffffffffffffffffffffffffffffffffff1673ffffffffffffffffffffffffffffffffffffffff1673ffffffffffffffffffffffffffffffffffffffff168152505090508873ffffffffffffffffffffffffffffffffffffffff16816040015173ffffffffffffffffffffffffffffffffffffffff161461109c576040517f08c379a000000000000000000000000000000000000000000000000000000000815260040161109390611d4c565b60405180910390fd5b6000816020015165ffffffffffff1690506201518081426110bd9190611f56565b68056bc75e2d631000006110d19190611efc565b6110db9190611ecb565b93506064846110ea9190611ecb565b945060405180606001604052808762ffffff1681526020014265ffffffffffff1681526020018b73ffffffffffffffffffffffffffffffffffffffff168152506004600088815260200190815260200160002060008201518160000160006101000a81548162ffffff021916908362ffffff16021790555060208201518160000160036101000a81548165ffffffffffff021916908365ffffffffffff16021790555060408201518160000160096101000a81548173ffffffffffffffffffffffffffffffffffffffff021916908373ffffffffffffffffffffffffffffffffffffffff160217905550905050505080806111e490612013565b915050610f16565b50600082111561128657600360009054906101000a900473ffffffffffffffffffffffffffffffffffffffff1673ffffffffffffffffffffffffffffffffffffffff166340c10f1988846040518363ffffffff1660e01b8152600401611253929190611c34565b600060405180830381600087803b15801561126d57600080fd5b505af1158015611281573d6000803e3d6000fd5b505050505b83156112985761129787878761141c565b5b7fd8138f8a3f377c5259ca548e70e4c2de94f129f5a11036a15b69513cba2b426a87836040516112c9929190611c34565b60405180910390a150505050505050565b6112e2611716565b73ffffffffffffffffffffffffffffffffffffffff16611300610e3b565b73ffffffffffffffffffffffffffffffffffffffff1614611356576040517f08c379a000000000000000000000000000000000000000000000000000000000815260040161134d90611d2c565b60405180910390fd5b565b60008060009054906101000a900473ffffffffffffffffffffffffffffffffffffffff169050816000806101000a81548173ffffffffffffffffffffffffffffffffffffffff021916908373ffffffffffffffffffffffffffffffffffffffff1602179055508173ffffffffffffffffffffffffffffffffffffffff168173ffffffffffffffffffffffffffffffffffffffff167f8be0079c531659141344cd1fd0a4f28419497f9722a3daafe3b4186f6b6457e060405160405180910390a35050565b600082829050600160008282546114339190611f56565b9250508190555060005b8383905081101561170f57838382818110611481577f4e487b7100000000000000000000000000000000000000000000000000000000600052603260045260246000fd5b9050602002013591506000600460008481526020019081526020016000206040518060600160405290816000820160009054906101000a900462ffffff1662ffffff1662ffffff1681526020016000820160039054906101000a900465ffffffffffff1665ffffffffffff1665ffffffffffff1681526020016000820160099054906101000a900473ffffffffffffffffffffffffffffffffffffffff1673ffffffffffffffffffffffffffffffffffffffff1673ffffffffffffffffffffffffffffffffffffffff168152505090503373ffffffffffffffffffffffffffffffffffffffff16816040015173ffffffffffffffffffffffffffffffffffffffff16146115c3576040517f08c379a00000000000000000000000000000000000000000000000000000000081526004016115ba90611d4c565b60405180910390fd5b60046000848152602001908152602001600020600080820160006101000a81549062ffffff02191690556000820160036101000a81549065ffffffffffff02191690556000820160096101000a81549073ffffffffffffffffffffffffffffffffffffffff021916905550507fc486b9458a8637650d84d262414833a5a457bc91ae86b7da110386c8c3fa255b86844260405161166293929190611c5d565b60405180910390a1600260009054906101000a900473ffffffffffffffffffffffffffffffffffffffff1673ffffffffffffffffffffffffffffffffffffffff166323b872dd3088866040518463ffffffff1660e01b81526004016116c993929190611bfd565b600060405180830381600087803b1580156116e357600080fd5b505af11580156116f7573d6000803e3d6000fd5b5050505050808061170790612013565b91505061143d565b5050505050565b600033905090565b6040518060200160405280600190602082028036833780820191505090505090565b60008135905061174f816121fc565b92915050565b600081519050611764816121fc565b92915050565b60008083601f84011261177c57600080fd5b8235905067ffffffffffffffff81111561179557600080fd5b6020830191508360208202830111156117ad57600080fd5b9250929050565b60008083601f8401126117c657600080fd5b8235905067ffffffffffffffff8111156117df57600080fd5b6020830191508360018202830111156117f757600080fd5b9250929050565b60008135905061180d81612213565b92915050565b60008151905061182281612213565b92915050565b60006020828403121561183a57600080fd5b600061184884828501611740565b91505092915050565b60006020828403121561186357600080fd5b600061187184828501611755565b91505092915050565b60008060008060006080868803121561189257600080fd5b60006118a088828901611740565b95505060206118b188828901611740565b94505060406118c2888289016117fe565b935050606086013567ffffffffffffffff8111156118df57600080fd5b6118eb888289016117b4565b92509250509295509295909350565b60008060006040848603121561190f57600080fd5b600061191d86828701611740565b935050602084013567ffffffffffffffff81111561193a57600080fd5b6119468682870161176a565b92509250509250925092565b6000806020838503121561196557600080fd5b600083013567ffffffffffffffff81111561197f57600080fd5b61198b8582860161176a565b92509250509250929050565b6000602082840312156119a957600080fd5b60006119b7848285016117fe565b91505092915050565b6000602082840312156119d257600080fd5b60006119e084828501611813565b91505092915050565b60006119f58383611bb5565b60208301905092915050565b611a0a81611f8a565b82525050565b611a1981611e18565b611a238184611e48565b9250611a2e82611dfe565b8060005b83811015611a5f578151611a4687826119e9565b9650611a5183611e2e565b925050600181019050611a32565b505050505050565b6000611a7282611e23565b611a7c8185611e53565b9350611a8783611e08565b8060005b83811015611ab8578151611a9f88826119e9565b9750611aaa83611e3b565b925050600181019050611a8b565b5085935050505092915050565b611ace81611f9c565b82525050565b6000611ae1602683611e64565b9150611aec826120ba565b604082019050919050565b6000611b04600e83611e64565b9150611b0f82612109565b602082019050919050565b6000611b27602083611e64565b9150611b3282612132565b602082019050919050565b6000611b4a600c83611e64565b9150611b558261215b565b602082019050919050565b6000611b6d602283611e64565b9150611b7882612184565b604082019050919050565b6000611b90600e83611e64565b9150611b9b826121d3565b602082019050919050565b611baf81611fe8565b82525050565b611bbe81611ff7565b82525050565b611bcd81611ff7565b82525050565b611bdc81612001565b82525050565b6000602082019050611bf76000830184611a01565b92915050565b6000606082019050611c126000830186611a01565b611c1f6020830185611a01565b611c2c6040830184611bc4565b949350505050565b6000604082019050611c496000830185611a01565b611c566020830184611bc4565b9392505050565b6000606082019050611c726000830186611a01565b611c7f6020830185611bc4565b611c8c6040830184611bc4565b949350505050565b6000602082019050611ca96000830184611a10565b92915050565b60006020820190508181036000830152611cc98184611a67565b905092915050565b6000602082019050611ce66000830184611ac5565b92915050565b60006020820190508181036000830152611d0581611ad4565b9050919050565b60006020820190508181036000830152611d2581611af7565b9050919050565b60006020820190508181036000830152611d4581611b1a565b9050919050565b60006020820190508181036000830152611d6581611b3d565b9050919050565b60006020820190508181036000830152611d8581611b60565b9050919050565b60006020820190508181036000830152611da581611b83565b9050919050565b6000606082019050611dc16000830186611ba6565b611dce6020830185611bd3565b611ddb6040830184611a01565b949350505050565b6000602082019050611df86000830184611bc4565b92915050565b6000819050919050565b6000819050602082019050919050565b600060019050919050565b600081519050919050565b6000602082019050919050565b6000602082019050919050565b600081905092915050565b600082825260208201905092915050565b600082825260208201905092915050565b6000611e8082611ff7565b9150611e8b83611ff7565b9250827fffffffffffffffffffffffffffffffffffffffffffffffffffffffffffffffff03821115611ec057611ebf61205c565b5b828201905092915050565b6000611ed682611ff7565b9150611ee183611ff7565b925082611ef157611ef061208b565b5b828204905092915050565b6000611f0782611ff7565b9150611f1283611ff7565b9250817fffffffffffffffffffffffffffffffffffffffffffffffffffffffffffffffff0483118215151615611f4b57611f4a61205c565b5b828202905092915050565b6000611f6182611ff7565b9150611f6c83611ff7565b925082821015611f7f57611f7e61205c565b5b828203905092915050565b6000611f9582611fc8565b9050919050565b60007fffffffff0000000000000000000000000000000000000000000000000000000082169050919050565b600073ffffffffffffffffffffffffffffffffffffffff82169050919050565b600062ffffff82169050919050565b6000819050919050565b600065ffffffffffff82169050919050565b600061201e82611ff7565b91507fffffffffffffffffffffffffffffffffffffffffffffffffffffffffffffffff8214156120515761205061205c565b5b600182019050919050565b7f4e487b7100000000000000000000000000000000000000000000000000000000600052601160045260246000fd5b7f4e487b7100000000000000000000000000000000000000000000000000000000600052601260045260246000fd5b7f4f776e61626c653a206e6577206f776e657220697320746865207a65726f206160008201527f6464726573730000000000000000000000000000000000000000000000000000602082015250565b7f6e6f7420796f757220746f6b656e000000000000000000000000000000000000600082015250565b7f4f776e61626c653a2063616c6c6572206973206e6f7420746865206f776e6572600082015250565b7f6e6f7420616e206f776e65720000000000000000000000000000000000000000600082015250565b7f43616e6e6f742073656e64206e66747320746f205661756c742064697265637460008201527f6c79000000000000000000000000000000000000000000000000000000000000602082015250565b7f616c7265616479207374616b6564000000000000000000000000000000000000600082015250565b61220581611f8a565b811461221057600080fd5b50565b61221c81611ff7565b811461222757600080fd5b5056fea2646970667358221220e92326e14fe647e902b342d5276446dd78b38ec86b8684a2a3258484d39cc3e864736f6c63430008040033",
  "linkReferences": {},
  "deployedLinkReferences": {}
}