{
  "_format": "hh-sol-artifact-1",
  "contractName": "Collection",
  "sourceName": "contracts/Collection.sol",
  "abi": [
    {
      "inputs": [],
      "stateMutability": "nonpayable",
      "type": "constructor"
    },
    {
      "anonymous": false,
      "inputs": [
        {
          "indexed": true,
          "internalType": "address",
          "name": "owner",
          "type": "address"
        },
        {
          "indexed": true,
          "internalType": "address",
          "name": "approved",
          "type": "address"
        },
        {
          "indexed": true,
          "internalType": "uint256",
          "name": "tokenId",
          "type": "uint256"
        }
      ],
      "name": "Approval",
      "type": "event"
    },
    {
      "anonymous": false,
      "inputs": [
        {
          "indexed": true,
          "internalType": "address",
          "name": "owner",
          "type": "address"
        },
        {
          "indexed": true,
          "internalType": "address",
          "name": "operator",
          "type": "address"
        },
        {
          "indexed": false,
          "internalType": "bool",
          "name": "approved",
          "type": "bool"
        }
      ],
      "name": "ApprovalForAll",
      "type": "event"
    },
    {
      "anonymous": false,
      "inputs": [
        {
          "indexed": true,
          "internalType": "address",
          "name": "previousOwner",
          "type": "address"
        },
        {
          "indexed": true,
          "internalType": "address",
          "name": "newOwner",
          "type": "address"
        }
      ],
      "name": "OwnershipTransferred",
      "type": "event"
    },
    {
      "anonymous": false,
      "inputs": [
        {
          "indexed": true,
          "internalType": "address",
          "name": "from",
          "type": "address"
        },
        {
          "indexed": true,
          "internalType": "address",
          "name": "to",
          "type": "address"
        },
        {
          "indexed": true,
          "internalType": "uint256",
          "name": "tokenId",
          "type": "uint256"
        }
      ],
      "name": "Transfer",
      "type": "event"
    },
    {
      "inputs": [
        {
          "internalType": "address",
          "name": "to",
          "type": "address"
        },
        {
          "internalType": "uint256",
          "name": "tokenId",
          "type": "uint256"
        }
      ],
      "name": "approve",
      "outputs": [],
      "stateMutability": "nonpayable",
      "type": "function"
    },
    {
      "inputs": [
        {
          "internalType": "address",
          "name": "owner",
          "type": "address"
        }
      ],
      "name": "balanceOf",
      "outputs": [
        {
          "internalType": "uint256",
          "name": "",
          "type": "uint256"
        }
      ],
      "stateMutability": "view",
      "type": "function"
    },
    {
      "inputs": [],
      "name": "baseExtension",
      "outputs": [
        {
          "internalType": "string",
          "name": "",
          "type": "string"
        }
      ],
      "stateMutability": "view",
      "type": "function"
    },
    {
      "inputs": [],
      "name": "baseURI",
      "outputs": [
        {
          "internalType": "string",
          "name": "",
          "type": "string"
        }
      ],
      "stateMutability": "view",
      "type": "function"
    },
    {
      "inputs": [],
      "name": "cost",
      "outputs": [
        {
          "internalType": "uint256",
          "name": "",
          "type": "uint256"
        }
      ],
      "stateMutability": "view",
      "type": "function"
    },
    {
      "inputs": [
        {
          "internalType": "string",
          "name": "_imageURI",
          "type": "string"
        },
        {
          "internalType": "string",
          "name": "_name",
          "type": "string"
        },
        {
          "internalType": "string",
          "name": "_description",
          "type": "string"
        },
        {
          "internalType": "string",
          "name": "_properties",
          "type": "string"
        }
      ],
      "name": "formatTokenURI",
      "outputs": [
        {
          "internalType": "string",
          "name": "",
          "type": "string"
        }
      ],
      "stateMutability": "pure",
      "type": "function"
    },
    {
      "inputs": [
        {
          "internalType": "uint256",
          "name": "tokenId",
          "type": "uint256"
        }
      ],
      "name": "getApproved",
      "outputs": [
        {
          "internalType": "address",
          "name": "",
          "type": "address"
        }
      ],
      "stateMutability": "view",
      "type": "function"
    },
    {
      "inputs": [
        {
          "internalType": "address",
          "name": "owner",
          "type": "address"
        },
        {
          "internalType": "address",
          "name": "operator",
          "type": "address"
        }
      ],
      "name": "isApprovedForAll",
      "outputs": [
        {
          "internalType": "bool",
          "name": "",
          "type": "bool"
        }
      ],
      "stateMutability": "view",
      "type": "function"
    },
    {
      "inputs": [],
      "name": "maxMintAmount",
      "outputs": [
        {
          "internalType": "uint256",
          "name": "",
          "type": "uint256"
        }
      ],
      "stateMutability": "view",
      "type": "function"
    },
    {
      "inputs": [],
      "name": "maxSupply",
      "outputs": [
        {
          "internalType": "uint256",
          "name": "",
          "type": "uint256"
        }
      ],
      "stateMutability": "view",
      "type": "function"
    },
    {
      "inputs": [
        {
          "internalType": "address",
          "name": "_to",
          "type": "address"
        },
        {
          "internalType": "uint256",
          "name": "_mintAmount",
          "type": "uint256"
        },
        {
          "internalType": "string",
          "name": "_imageURI",
          "type": "string"
        },
        {
          "internalType": "string",
          "name": "_name",
          "type": "string"
        },
        {
          "internalType": "string",
          "name": "_description",
          "type": "string"
        },
        {
          "internalType": "string",
          "name": "_properties",
          "type": "string"
        }
      ],
      "name": "mint",
      "outputs": [],
      "stateMutability": "payable",
      "type": "function"
    },
    {
      "inputs": [],
      "name": "name",
      "outputs": [
        {
          "internalType": "string",
          "name": "",
          "type": "string"
        }
      ],
      "stateMutability": "view",
      "type": "function"
    },
    {
      "inputs": [],
      "name": "owner",
      "outputs": [
        {
          "internalType": "address",
          "name": "",
          "type": "address"
        }
      ],
      "stateMutability": "view",
      "type": "function"
    },
    {
      "inputs": [
        {
          "internalType": "uint256",
          "name": "tokenId",
          "type": "uint256"
        }
      ],
      "name": "ownerOf",
      "outputs": [
        {
          "internalType": "address",
          "name": "",
          "type": "address"
        }
      ],
      "stateMutability": "view",
      "type": "function"
    },
    {
      "inputs": [
        {
          "internalType": "bool",
          "name": "_state",
          "type": "bool"
        }
      ],
      "name": "pause",
      "outputs": [],
      "stateMutability": "nonpayable",
      "type": "function"
    },
    {
      "inputs": [],
      "name": "paused",
      "outputs": [
        {
          "internalType": "bool",
          "name": "",
          "type": "bool"
        }
      ],
      "stateMutability": "view",
      "type": "function"
    },
    {
      "inputs": [],
      "name": "renounceOwnership",
      "outputs": [],
      "stateMutability": "nonpayable",
      "type": "function"
    },
    {
      "inputs": [
        {
          "internalType": "address",
          "name": "from",
          "type": "address"
        },
        {
          "internalType": "address",
          "name": "to",
          "type": "address"
        },
        {
          "internalType": "uint256",
          "name": "tokenId",
          "type": "uint256"
        }
      ],
      "name": "safeTransferFrom",
      "outputs": [],
      "stateMutability": "nonpayable",
      "type": "function"
    },
    {
      "inputs": [
        {
          "internalType": "address",
          "name": "from",
          "type": "address"
        },
        {
          "internalType": "address",
          "name": "to",
          "type": "address"
        },
        {
          "internalType": "uint256",
          "name": "tokenId",
          "type": "uint256"
        },
        {
          "internalType": "bytes",
          "name": "_data",
          "type": "bytes"
        }
      ],
      "name": "safeTransferFrom",
      "outputs": [],
      "stateMutability": "nonpayable",
      "type": "function"
    },
    {
      "inputs": [
        {
          "internalType": "address",
          "name": "operator",
          "type": "address"
        },
        {
          "internalType": "bool",
          "name": "approved",
          "type": "bool"
        }
      ],
      "name": "setApprovalForAll",
      "outputs": [],
      "stateMutability": "nonpayable",
      "type": "function"
    },
    {
      "inputs": [
        {
          "internalType": "string",
          "name": "_newBaseExtension",
          "type": "string"
        }
      ],
      "name": "setBaseExtension",
      "outputs": [],
      "stateMutability": "nonpayable",
      "type": "function"
    },
    {
      "inputs": [
        {
          "internalType": "string",
          "name": "_newBaseURI",
          "type": "string"
        }
      ],
      "name": "setBaseURI",
      "outputs": [],
      "stateMutability": "nonpayable",
      "type": "function"
    },
    {
      "inputs": [
        {
          "internalType": "uint256",
          "name": "_newmaxMintAmount",
          "type": "uint256"
        }
      ],
      "name": "setmaxMintAmount",
      "outputs": [],
      "stateMutability": "nonpayable",
      "type": "function"
    },
    {
      "inputs": [
        {
          "internalType": "bytes4",
          "name": "interfaceId",
          "type": "bytes4"
        }
      ],
      "name": "supportsInterface",
      "outputs": [
        {
          "internalType": "bool",
          "name": "",
          "type": "bool"
        }
      ],
      "stateMutability": "view",
      "type": "function"
    },
    {
      "inputs": [],
      "name": "symbol",
      "outputs": [
        {
          "internalType": "string",
          "name": "",
          "type": "string"
        }
      ],
      "stateMutability": "view",
      "type": "function"
    },
    {
      "inputs": [
        {
          "internalType": "uint256",
          "name": "index",
          "type": "uint256"
        }
      ],
      "name": "tokenByIndex",
      "outputs": [
        {
          "internalType": "uint256",
          "name": "",
          "type": "uint256"
        }
      ],
      "stateMutability": "view",
      "type": "function"
    },
    {
      "inputs": [
        {
          "internalType": "address",
          "name": "owner",
          "type": "address"
        },
        {
          "internalType": "uint256",
          "name": "index",
          "type": "uint256"
        }
      ],
      "name": "tokenOfOwnerByIndex",
      "outputs": [
        {
          "internalType": "uint256",
          "name": "",
          "type": "uint256"
        }
      ],
      "stateMutability": "view",
      "type": "function"
    },
    {
      "inputs": [
        {
          "internalType": "uint256",
          "name": "tokenId",
          "type": "uint256"
        }
      ],
      "name": "tokenURI",
      "outputs": [
        {
          "internalType": "string",
          "name": "",
          "type": "string"
        }
      ],
      "stateMutability": "view",
      "type": "function"
    },
    {
      "inputs": [],
      "name": "totalSupply",
      "outputs": [
        {
          "internalType": "uint256",
          "name": "",
          "type": "uint256"
        }
      ],
      "stateMutability": "view",
      "type": "function"
    },
    {
      "inputs": [
        {
          "internalType": "address",
          "name": "from",
          "type": "address"
        },
        {
          "internalType": "address",
          "name": "to",
          "type": "address"
        },
        {
          "internalType": "uint256",
          "name": "tokenId",
          "type": "uint256"
        }
      ],
      "name": "transferFrom",
      "outputs": [],
      "stateMutability": "nonpayable",
      "type": "function"
    },
    {
      "inputs": [
        {
          "internalType": "address",
          "name": "newOwner",
          "type": "address"
        }
      ],
      "name": "transferOwnership",
      "outputs": [],
      "stateMutability": "nonpayable",
      "type": "function"
    },
    {
      "inputs": [
        {
          "internalType": "address",
          "name": "_owner",
          "type": "address"
        }
      ],
      "name": "walletOfOwner",
      "outputs": [
        {
          "internalType": "uint256[]",
          "name": "",
          "type": "uint256[]"
        }
      ],
      "stateMutability": "view",
      "type": "function"
    },
    {
      "inputs": [],
      "name": "withdraw",
      "outputs": [],
      "stateMutability": "payable",
      "type": "function"
    }
  ],
  "bytecode": "0x60806040526040518060400160405280600581526020017f2e6a736f6e000000000000000000000000000000000000000000000000000000815250600c90805190602001906200005192919062000226565b5066038d7ea4c68000600d55620186a0600e556005600f556000601060006101000a81548160ff0219169083151502179055503480156200009157600080fd5b506040518060400160405280601681526020017f4e657432446576204e465420436f6c6c656374696f6e000000000000000000008152506040518060400160405280600381526020017f4e3244000000000000000000000000000000000000000000000000000000000081525081600090805190602001906200011692919062000226565b5080600190805190602001906200012f92919062000226565b50505062000152620001466200015860201b60201c565b6200016060201b60201c565b6200033b565b600033905090565b6000600a60009054906101000a900473ffffffffffffffffffffffffffffffffffffffff16905081600a60006101000a81548173ffffffffffffffffffffffffffffffffffffffff021916908373ffffffffffffffffffffffffffffffffffffffff1602179055508173ffffffffffffffffffffffffffffffffffffffff168173ffffffffffffffffffffffffffffffffffffffff167f8be0079c531659141344cd1fd0a4f28419497f9722a3daafe3b4186f6b6457e060405160405180910390a35050565b8280546200023490620002d6565b90600052602060002090601f016020900481019282620002585760008555620002a4565b82601f106200027357805160ff1916838001178555620002a4565b82800160010185558215620002a4579182015b82811115620002a357825182559160200191906001019062000286565b5b509050620002b39190620002b7565b5090565b5b80821115620002d2576000816000905550600101620002b8565b5090565b60006002820490506001821680620002ef57607f821691505b602082108114156200030657620003056200030c565b5b50919050565b7f4e487b7100000000000000000000000000000000000000000000000000000000600052602260045260246000fd5b6140f5806200034b6000396000f3fe6080604052600436106101ee5760003560e01c80636352211e1161010d578063a22cb465116100a0578063d5abeb011161006f578063d5abeb01146106e3578063da3ef23f1461070e578063e985e9c514610737578063f2fde38b14610774578063f66d61a31461079d576101ee565b8063a22cb46514610629578063b88d4fde14610652578063c66828621461067b578063c87b56dd146106a6576101ee565b80637f00c7a6116100dc5780637f00c7a61461058e5780638da5cb5b146105b757806395d89b41146105e2578063a21a3c1c1461060d576101ee565b80636352211e146104d25780636c0360eb1461050f57806370a082311461053a578063715018a614610577576101ee565b806323b872dd11610185578063438b630011610154578063438b6300146104045780634f6ccce71461044157806355f804b31461047e5780635c975abb146104a7576101ee565b806323b872dd1461036b5780632f745c59146103945780633ccfd60b146103d157806342842e0e146103db576101ee565b8063095ea7b3116101c1578063095ea7b3146102c157806313faede6146102ea57806318160ddd14610315578063239c70ae14610340576101ee565b806301ffc9a7146101f357806302329a291461023057806306fdde0314610259578063081812fc14610284575b600080fd5b3480156101ff57600080fd5b5061021a60048036038101906102159190612c31565b6107da565b6040516102279190613378565b60405180910390f35b34801561023c57600080fd5b5061025760048036038101906102529190612c08565b610854565b005b34801561026557600080fd5b5061026e610879565b60405161027b9190613393565b60405180910390f35b34801561029057600080fd5b506102ab60048036038101906102a69190612d87565b61090b565b6040516102b891906132ef565b60405180910390f35b3480156102cd57600080fd5b506102e860048036038101906102e39190612ae3565b610990565b005b3480156102f657600080fd5b506102ff610aa8565b60405161030c91906135d5565b60405180910390f35b34801561032157600080fd5b5061032a610aae565b60405161033791906135d5565b60405180910390f35b34801561034c57600080fd5b50610355610abb565b60405161036291906135d5565b60405180910390f35b34801561037757600080fd5b50610392600480360381019061038d91906129dd565b610ac1565b005b3480156103a057600080fd5b506103bb60048036038101906103b69190612ae3565b610b21565b6040516103c891906135d5565b60405180910390f35b6103d9610bc6565b005b3480156103e757600080fd5b5061040260048036038101906103fd91906129dd565b610c0e565b005b34801561041057600080fd5b5061042b60048036038101906104269190612978565b610c2e565b6040516104389190613356565b60405180910390f35b34801561044d57600080fd5b5061046860048036038101906104639190612d87565b610d28565b60405161047591906135d5565b60405180910390f35b34801561048a57600080fd5b506104a560048036038101906104a09190612c83565b610dbf565b005b3480156104b357600080fd5b506104bc610de1565b6040516104c99190613378565b60405180910390f35b3480156104de57600080fd5b506104f960048036038101906104f49190612d87565b610df4565b60405161050691906132ef565b60405180910390f35b34801561051b57600080fd5b50610524610ea6565b6040516105319190613393565b60405180910390f35b34801561054657600080fd5b50610561600480360381019061055c9190612978565b610f34565b60405161056e91906135d5565b60405180910390f35b34801561058357600080fd5b5061058c610fec565b005b34801561059a57600080fd5b506105b560048036038101906105b09190612d87565b611000565b005b3480156105c357600080fd5b506105cc611012565b6040516105d991906132ef565b60405180910390f35b3480156105ee57600080fd5b506105f761103c565b6040516106049190613393565b60405180910390f35b61062760048036038101906106229190612b1f565b6110ce565b005b34801561063557600080fd5b50610650600480360381019061064b9190612aa7565b61118a565b005b34801561065e57600080fd5b5061067960048036038101906106749190612a2c565b611295565b005b34801561068757600080fd5b506106906112f7565b60405161069d9190613393565b60405180910390f35b3480156106b257600080fd5b506106cd60048036038101906106c89190612d87565b611385565b6040516106da9190613393565b60405180910390f35b3480156106ef57600080fd5b506106f8611478565b60405161070591906135d5565b60405180910390f35b34801561071a57600080fd5b5061073560048036038101906107309190612c83565b61147e565b005b34801561074357600080fd5b5061075e600480360381019061075991906129a1565b6114a0565b60405161076b9190613378565b60405180910390f35b34801561078057600080fd5b5061079b60048036038101906107969190612978565b611534565b005b3480156107a957600080fd5b506107c460048036038101906107bf9190612cc4565b6115b8565b6040516107d19190613393565b60405180910390f35b60007f780e9d63000000000000000000000000000000000000000000000000000000007bffffffffffffffffffffffffffffffffffffffffffffffffffffffff1916827bffffffffffffffffffffffffffffffffffffffffffffffffffffffff1916148061084d575061084c82611611565b5b9050919050565b61085c6116f3565b80601060006101000a81548160ff02191690831515021790555050565b606060008054610888906138be565b80601f01602080910402602001604051908101604052809291908181526020018280546108b4906138be565b80156109015780601f106108d657610100808354040283529160200191610901565b820191906000526020600020905b8154815290600101906020018083116108e457829003601f168201915b5050505050905090565b600061091682611771565b610955576040517f08c379a000000000000000000000000000000000000000000000000000000000815260040161094c906134f5565b60405180910390fd5b6004600083815260200190815260200160002060009054906101000a900473ffffffffffffffffffffffffffffffffffffffff169050919050565b600061099b82610df4565b90508073ffffffffffffffffffffffffffffffffffffffff168373ffffffffffffffffffffffffffffffffffffffff161415610a0c576040517f08c379a0000000000000000000000000000000000000000000000000000000008152600401610a0390613575565b60405180910390fd5b8073ffffffffffffffffffffffffffffffffffffffff16610a2b6117dd565b73ffffffffffffffffffffffffffffffffffffffff161480610a5a5750610a5981610a546117dd565b6114a0565b5b610a99576040517f08c379a0000000000000000000000000000000000000000000000000000000008152600401610a9090613475565b60405180910390fd5b610aa383836117e5565b505050565b600d5481565b6000600880549050905090565b600f5481565b610ad2610acc6117dd565b8261189e565b610b11576040517f08c379a0000000000000000000000000000000000000000000000000000000008152600401610b0890613595565b60405180910390fd5b610b1c83838361197c565b505050565b6000610b2c83610f34565b8210610b6d576040517f08c379a0000000000000000000000000000000000000000000000000000000008152600401610b64906133b5565b60405180910390fd5b600660008473ffffffffffffffffffffffffffffffffffffffff1673ffffffffffffffffffffffffffffffffffffffff168152602001908152602001600020600083815260200190815260200160002054905092915050565b610bce6116f3565b3373ffffffffffffffffffffffffffffffffffffffff166108fc479081150290604051600060405180830381858888f19350505050610c0c57600080fd5b565b610c2983838360405180602001604052806000815250611295565b505050565b60606000610c3b83610f34565b905060008167ffffffffffffffff811115610c7f577f4e487b7100000000000000000000000000000000000000000000000000000000600052604160045260246000fd5b604051908082528060200260200182016040528015610cad5781602001602082028036833780820191505090505b50905060005b82811015610d1d57610cc58582610b21565b828281518110610cfe577f4e487b7100000000000000000000000000000000000000000000000000000000600052603260045260246000fd5b6020026020010181815250508080610d1590613921565b915050610cb3565b508092505050919050565b6000610d32610aae565b8210610d73576040517f08c379a0000000000000000000000000000000000000000000000000000000008152600401610d6a906135b5565b60405180910390fd5b60088281548110610dad577f4e487b7100000000000000000000000000000000000000000000000000000000600052603260045260246000fd5b90600052602060002001549050919050565b610dc76116f3565b80600b9080519060200190610ddd92919061279c565b5050565b601060009054906101000a900460ff1681565b6000806002600084815260200190815260200160002060009054906101000a900473ffffffffffffffffffffffffffffffffffffffff169050600073ffffffffffffffffffffffffffffffffffffffff168173ffffffffffffffffffffffffffffffffffffffff161415610e9d576040517f08c379a0000000000000000000000000000000000000000000000000000000008152600401610e94906134b5565b60405180910390fd5b80915050919050565b600b8054610eb3906138be565b80601f0160208091040260200160405190810160405280929190818152602001828054610edf906138be565b8015610f2c5780601f10610f0157610100808354040283529160200191610f2c565b820191906000526020600020905b815481529060010190602001808311610f0f57829003601f168201915b505050505081565b60008073ffffffffffffffffffffffffffffffffffffffff168273ffffffffffffffffffffffffffffffffffffffff161415610fa5576040517f08c379a0000000000000000000000000000000000000000000000000000000008152600401610f9c90613495565b60405180910390fd5b600360008373ffffffffffffffffffffffffffffffffffffffff1673ffffffffffffffffffffffffffffffffffffffff168152602001908152602001600020549050919050565b610ff46116f3565b610ffe6000611bd8565b565b6110086116f3565b80600f8190555050565b6000600a60009054906101000a900473ffffffffffffffffffffffffffffffffffffffff16905090565b60606001805461104b906138be565b80601f0160208091040260200160405190810160405280929190818152602001828054611077906138be565b80156110c45780601f10611099576101008083540402835291602001916110c4565b820191906000526020600020905b8154815290600101906020018083116110a757829003601f168201915b5050505050905090565b60006110d8610aae565b9050601060009054906101000a900460ff16156110f457600080fd5b6000861161110157600080fd5b600f5486111561111057600080fd5b600e54868261111f91906136f3565b111561112a57600080fd5b6000600190505b8681116111805761114d88828461114891906136f3565b611c9e565b61116d818361115c91906136f3565b611168888888886115b8565b611cbc565b808061117890613921565b915050611131565b5050505050505050565b80600560006111976117dd565b73ffffffffffffffffffffffffffffffffffffffff1673ffffffffffffffffffffffffffffffffffffffff16815260200190815260200160002060008473ffffffffffffffffffffffffffffffffffffffff1673ffffffffffffffffffffffffffffffffffffffff16815260200190815260200160002060006101000a81548160ff0219169083151502179055508173ffffffffffffffffffffffffffffffffffffffff166112446117dd565b73ffffffffffffffffffffffffffffffffffffffff167f17307eab39ab6107e8899845ad3d59bd9653f200f220920489ca2b5937696c31836040516112899190613378565b60405180910390a35050565b6112a66112a06117dd565b8361189e565b6112e5576040517f08c379a00000000000000000000000000000000000000000000000000000000081526004016112dc90613595565b60405180910390fd5b6112f184848484611ce8565b50505050565b600c8054611304906138be565b80601f0160208091040260200160405190810160405280929190818152602001828054611330906138be565b801561137d5780601f106113525761010080835404028352916020019161137d565b820191906000526020600020905b81548152906001019060200180831161136057829003601f168201915b505050505081565b606061139082611771565b6113cf576040517f08c379a00000000000000000000000000000000000000000000000000000000081526004016113c690613555565b60405180910390fd5b60006011600084815260200190815260200160002080546113ef906138be565b80601f016020809104026020016040519081016040528092919081815260200182805461141b906138be565b80156114685780601f1061143d57610100808354040283529160200191611468565b820191906000526020600020905b81548152906001019060200180831161144b57829003601f168201915b5050505050905080915050919050565b600e5481565b6114866116f3565b80600c908051906020019061149c92919061279c565b5050565b6000600560008473ffffffffffffffffffffffffffffffffffffffff1673ffffffffffffffffffffffffffffffffffffffff16815260200190815260200160002060008373ffffffffffffffffffffffffffffffffffffffff1673ffffffffffffffffffffffffffffffffffffffff16815260200190815260200160002060009054906101000a900460ff16905092915050565b61153c6116f3565b600073ffffffffffffffffffffffffffffffffffffffff168173ffffffffffffffffffffffffffffffffffffffff1614156115ac576040517f08c379a00000000000000000000000000000000000000000000000000000000081526004016115a3906133f5565b60405180910390fd5b6115b581611bd8565b50565b60606115e8848484886040516020016115d4949392919061324d565b604051602081830303815290604052611d44565b6040516020016115f891906132cd565b6040516020818303038152906040529050949350505050565b60007f80ac58cd000000000000000000000000000000000000000000000000000000007bffffffffffffffffffffffffffffffffffffffffffffffffffffffff1916827bffffffffffffffffffffffffffffffffffffffffffffffffffffffff191614806116dc57507f5b5e139f000000000000000000000000000000000000000000000000000000007bffffffffffffffffffffffffffffffffffffffffffffffffffffffff1916827bffffffffffffffffffffffffffffffffffffffffffffffffffffffff1916145b806116ec57506116eb82611ece565b5b9050919050565b6116fb6117dd565b73ffffffffffffffffffffffffffffffffffffffff16611719611012565b73ffffffffffffffffffffffffffffffffffffffff161461176f576040517f08c379a000000000000000000000000000000000000000000000000000000000815260040161176690613515565b60405180910390fd5b565b60008073ffffffffffffffffffffffffffffffffffffffff166002600084815260200190815260200160002060009054906101000a900473ffffffffffffffffffffffffffffffffffffffff1673ffffffffffffffffffffffffffffffffffffffff1614159050919050565b600033905090565b816004600083815260200190815260200160002060006101000a81548173ffffffffffffffffffffffffffffffffffffffff021916908373ffffffffffffffffffffffffffffffffffffffff160217905550808273ffffffffffffffffffffffffffffffffffffffff1661185883610df4565b73ffffffffffffffffffffffffffffffffffffffff167f8c5be1e5ebec7d5bd14f71427d1e84f3dd0314c0f7b2291e5b200ac8c7c3b92560405160405180910390a45050565b60006118a982611771565b6118e8576040517f08c379a00000000000000000000000000000000000000000000000000000000081526004016118df90613455565b60405180910390fd5b60006118f383610df4565b90508073ffffffffffffffffffffffffffffffffffffffff168473ffffffffffffffffffffffffffffffffffffffff16148061196257508373ffffffffffffffffffffffffffffffffffffffff1661194a8461090b565b73ffffffffffffffffffffffffffffffffffffffff16145b80611973575061197281856114a0565b5b91505092915050565b8273ffffffffffffffffffffffffffffffffffffffff1661199c82610df4565b73ffffffffffffffffffffffffffffffffffffffff16146119f2576040517f08c379a00000000000000000000000000000000000000000000000000000000081526004016119e990613535565b60405180910390fd5b600073ffffffffffffffffffffffffffffffffffffffff168273ffffffffffffffffffffffffffffffffffffffff161415611a62576040517f08c379a0000000000000000000000000000000000000000000000000000000008152600401611a5990613435565b60405180910390fd5b611a6d838383611f38565b611a786000826117e5565b6001600360008573ffffffffffffffffffffffffffffffffffffffff1673ffffffffffffffffffffffffffffffffffffffff1681526020019081526020016000206000828254611ac891906137d4565b925050819055506001600360008473ffffffffffffffffffffffffffffffffffffffff1673ffffffffffffffffffffffffffffffffffffffff1681526020019081526020016000206000828254611b1f91906136f3565b92505081905550816002600083815260200190815260200160002060006101000a81548173ffffffffffffffffffffffffffffffffffffffff021916908373ffffffffffffffffffffffffffffffffffffffff160217905550808273ffffffffffffffffffffffffffffffffffffffff168473ffffffffffffffffffffffffffffffffffffffff167fddf252ad1be2c89b69c2b068fc378daa952ba7f163c4a11628f55a4df523b3ef60405160405180910390a4505050565b6000600a60009054906101000a900473ffffffffffffffffffffffffffffffffffffffff16905081600a60006101000a81548173ffffffffffffffffffffffffffffffffffffffff021916908373ffffffffffffffffffffffffffffffffffffffff1602179055508173ffffffffffffffffffffffffffffffffffffffff168173ffffffffffffffffffffffffffffffffffffffff167f8be0079c531659141344cd1fd0a4f28419497f9722a3daafe3b4186f6b6457e060405160405180910390a35050565b611cb882826040518060200160405280600081525061204c565b5050565b80601160008481526020019081526020016000209080519060200190611ce392919061279c565b505050565b611cf384848461197c565b611cff848484846120a7565b611d3e576040517f08c379a0000000000000000000000000000000000000000000000000000000008152600401611d35906133d5565b60405180910390fd5b50505050565b6060600082511415611d6757604051806020016040528060008152509050611ec9565b60006040518060600160405280604081526020016140806040913990506000600360028551611d9691906136f3565b611da09190613749565b6004611dac919061377a565b67ffffffffffffffff811115611deb577f4e487b7100000000000000000000000000000000000000000000000000000000600052604160045260246000fd5b6040519080825280601f01601f191660200182016040528015611e1d5781602001600182028036833780820191505090505b509050600182016020820185865187015b80821015611e89576003820191508151603f8160121c168501518453600184019350603f81600c1c168501518453600184019350603f8160061c168501518453600184019350603f8116850151845360018401935050611e2e565b5050600386510660018114611ea55760028114611eb857611ec0565b603d6001830353603d6002830353611ec0565b603d60018303535b50505080925050505b919050565b60007f01ffc9a7000000000000000000000000000000000000000000000000000000007bffffffffffffffffffffffffffffffffffffffffffffffffffffffff1916827bffffffffffffffffffffffffffffffffffffffffffffffffffffffff1916149050919050565b611f4383838361223e565b600073ffffffffffffffffffffffffffffffffffffffff168373ffffffffffffffffffffffffffffffffffffffff161415611f8657611f8181612243565b611fc5565b8173ffffffffffffffffffffffffffffffffffffffff168373ffffffffffffffffffffffffffffffffffffffff1614611fc457611fc3838261228c565b5b5b600073ffffffffffffffffffffffffffffffffffffffff168273ffffffffffffffffffffffffffffffffffffffff16141561200857612003816123f9565b612047565b8273ffffffffffffffffffffffffffffffffffffffff168273ffffffffffffffffffffffffffffffffffffffff161461204657612045828261253c565b5b5b505050565b61205683836125bb565b61206360008484846120a7565b6120a2576040517f08c379a0000000000000000000000000000000000000000000000000000000008152600401612099906133d5565b60405180910390fd5b505050565b60006120c88473ffffffffffffffffffffffffffffffffffffffff16612789565b15612231578373ffffffffffffffffffffffffffffffffffffffff1663150b7a026120f16117dd565b8786866040518563ffffffff1660e01b8152600401612113949392919061330a565b602060405180830381600087803b15801561212d57600080fd5b505af192505050801561215e57506040513d601f19601f8201168201806040525081019061215b9190612c5a565b60015b6121e1573d806000811461218e576040519150601f19603f3d011682016040523d82523d6000602084013e612193565b606091505b506000815114156121d9576040517f08c379a00000000000000000000000000000000000000000000000000000000081526004016121d0906133d5565b60405180910390fd5b805181602001fd5b63150b7a0260e01b7bffffffffffffffffffffffffffffffffffffffffffffffffffffffff1916817bffffffffffffffffffffffffffffffffffffffffffffffffffffffff191614915050612236565b600190505b949350505050565b505050565b6008805490506009600083815260200190815260200160002081905550600881908060018154018082558091505060019003906000526020600020016000909190919091505550565b6000600161229984610f34565b6122a391906137d4565b9050600060076000848152602001908152602001600020549050818114612388576000600660008673ffffffffffffffffffffffffffffffffffffffff1673ffffffffffffffffffffffffffffffffffffffff168152602001908152602001600020600084815260200190815260200160002054905080600660008773ffffffffffffffffffffffffffffffffffffffff1673ffffffffffffffffffffffffffffffffffffffff168152602001908152602001600020600084815260200190815260200160002081905550816007600083815260200190815260200160002081905550505b6007600084815260200190815260200160002060009055600660008573ffffffffffffffffffffffffffffffffffffffff1673ffffffffffffffffffffffffffffffffffffffff16815260200190815260200160002060008381526020019081526020016000206000905550505050565b6000600160088054905061240d91906137d4565b9050600060096000848152602001908152602001600020549050600060088381548110612463577f4e487b7100000000000000000000000000000000000000000000000000000000600052603260045260246000fd5b9060005260206000200154905080600883815481106124ab577f4e487b7100000000000000000000000000000000000000000000000000000000600052603260045260246000fd5b906000526020600020018190555081600960008381526020019081526020016000208190555060096000858152602001908152602001600020600090556008805480612520577f4e487b7100000000000000000000000000000000000000000000000000000000600052603160045260246000fd5b6001900381819060005260206000200160009055905550505050565b600061254783610f34565b905081600660008573ffffffffffffffffffffffffffffffffffffffff1673ffffffffffffffffffffffffffffffffffffffff168152602001908152602001600020600083815260200190815260200160002081905550806007600084815260200190815260200160002081905550505050565b600073ffffffffffffffffffffffffffffffffffffffff168273ffffffffffffffffffffffffffffffffffffffff16141561262b576040517f08c379a0000000000000000000000000000000000000000000000000000000008152600401612622906134d5565b60405180910390fd5b61263481611771565b15612674576040517f08c379a000000000000000000000000000000000000000000000000000000000815260040161266b90613415565b60405180910390fd5b61268060008383611f38565b6001600360008473ffffffffffffffffffffffffffffffffffffffff1673ffffffffffffffffffffffffffffffffffffffff16815260200190815260200160002060008282546126d091906136f3565b92505081905550816002600083815260200190815260200160002060006101000a81548173ffffffffffffffffffffffffffffffffffffffff021916908373ffffffffffffffffffffffffffffffffffffffff160217905550808273ffffffffffffffffffffffffffffffffffffffff16600073ffffffffffffffffffffffffffffffffffffffff167fddf252ad1be2c89b69c2b068fc378daa952ba7f163c4a11628f55a4df523b3ef60405160405180910390a45050565b600080823b905060008111915050919050565b8280546127a8906138be565b90600052602060002090601f0160209004810192826127ca5760008555612811565b82601f106127e357805160ff1916838001178555612811565b82800160010185558215612811579182015b828111156128105782518255916020019190600101906127f5565b5b50905061281e9190612822565b5090565b5b8082111561283b576000816000905550600101612823565b5090565b600061285261284d84613615565b6135f0565b90508281526020810184848401111561286a57600080fd5b61287584828561387c565b509392505050565b600061289061288b84613646565b6135f0565b9050828152602081018484840111156128a857600080fd5b6128b384828561387c565b509392505050565b6000813590506128ca81614023565b92915050565b6000813590506128df8161403a565b92915050565b6000813590506128f481614051565b92915050565b60008151905061290981614051565b92915050565b600082601f83011261292057600080fd5b813561293084826020860161283f565b91505092915050565b600082601f83011261294a57600080fd5b813561295a84826020860161287d565b91505092915050565b60008135905061297281614068565b92915050565b60006020828403121561298a57600080fd5b6000612998848285016128bb565b91505092915050565b600080604083850312156129b457600080fd5b60006129c2858286016128bb565b92505060206129d3858286016128bb565b9150509250929050565b6000806000606084860312156129f257600080fd5b6000612a00868287016128bb565b9350506020612a11868287016128bb565b9250506040612a2286828701612963565b9150509250925092565b60008060008060808587031215612a4257600080fd5b6000612a50878288016128bb565b9450506020612a61878288016128bb565b9350506040612a7287828801612963565b925050606085013567ffffffffffffffff811115612a8f57600080fd5b612a9b8782880161290f565b91505092959194509250565b60008060408385031215612aba57600080fd5b6000612ac8858286016128bb565b9250506020612ad9858286016128d0565b9150509250929050565b60008060408385031215612af657600080fd5b6000612b04858286016128bb565b9250506020612b1585828601612963565b9150509250929050565b60008060008060008060c08789031215612b3857600080fd5b6000612b4689828a016128bb565b9650506020612b5789828a01612963565b955050604087013567ffffffffffffffff811115612b7457600080fd5b612b8089828a01612939565b945050606087013567ffffffffffffffff811115612b9d57600080fd5b612ba989828a01612939565b935050608087013567ffffffffffffffff811115612bc657600080fd5b612bd289828a01612939565b92505060a087013567ffffffffffffffff811115612bef57600080fd5b612bfb89828a01612939565b9150509295509295509295565b600060208284031215612c1a57600080fd5b6000612c28848285016128d0565b91505092915050565b600060208284031215612c4357600080fd5b6000612c51848285016128e5565b91505092915050565b600060208284031215612c6c57600080fd5b6000612c7a848285016128fa565b91505092915050565b600060208284031215612c9557600080fd5b600082013567ffffffffffffffff811115612caf57600080fd5b612cbb84828501612939565b91505092915050565b60008060008060808587031215612cda57600080fd5b600085013567ffffffffffffffff811115612cf457600080fd5b612d0087828801612939565b945050602085013567ffffffffffffffff811115612d1d57600080fd5b612d2987828801612939565b935050604085013567ffffffffffffffff811115612d4657600080fd5b612d5287828801612939565b925050606085013567ffffffffffffffff811115612d6f57600080fd5b612d7b87828801612939565b91505092959194509250565b600060208284031215612d9957600080fd5b6000612da784828501612963565b91505092915050565b6000612dbc838361322f565b60208301905092915050565b612dd181613808565b82525050565b6000612de282613687565b612dec81856136b5565b9350612df783613677565b8060005b83811015612e28578151612e0f8882612db0565b9750612e1a836136a8565b925050600181019050612dfb565b5085935050505092915050565b612e3e8161381a565b82525050565b6000612e4f82613692565b612e5981856136c6565b9350612e6981856020860161388b565b612e7281613a26565b840191505092915050565b6000612e888261369d565b612e9281856136d7565b9350612ea281856020860161388b565b612eab81613a26565b840191505092915050565b6000612ec18261369d565b612ecb81856136e8565b9350612edb81856020860161388b565b80840191505092915050565b6000612ef46009836136e8565b9150612eff82613a37565b600982019050919050565b6000612f176013836136e8565b9150612f2282613a60565b601382019050919050565b6000612f3a602b836136d7565b9150612f4582613a89565b604082019050919050565b6000612f5d6032836136d7565b9150612f6882613ad8565b604082019050919050565b6000612f806026836136d7565b9150612f8b82613b27565b604082019050919050565b6000612fa3601c836136d7565b9150612fae82613b76565b602082019050919050565b6000612fc6600b836136e8565b9150612fd182613b9f565b600b82019050919050565b6000612fe96024836136d7565b9150612ff482613bc8565b604082019050919050565b600061300c602c836136d7565b915061301782613c17565b604082019050919050565b600061302f6038836136d7565b915061303a82613c66565b604082019050919050565b60006130526001836136e8565b915061305d82613cb5565b600182019050919050565b6000613075602a836136d7565b915061308082613cde565b604082019050919050565b60006130986029836136d7565b91506130a382613d2d565b604082019050919050565b60006130bb6002836136e8565b91506130c682613d7c565b600282019050919050565b60006130de6020836136d7565b91506130e982613da5565b602082019050919050565b6000613101602c836136d7565b915061310c82613dce565b604082019050919050565b60006131246020836136d7565b915061312f82613e1d565b602082019050919050565b60006131476029836136d7565b915061315282613e46565b604082019050919050565b600061316a602f836136d7565b915061317582613e95565b604082019050919050565b600061318d6021836136d7565b915061319882613ee4565b604082019050919050565b60006131b0601d836136e8565b91506131bb82613f33565b601d82019050919050565b60006131d36031836136d7565b91506131de82613f5c565b604082019050919050565b60006131f6602c836136d7565b915061320182613fab565b604082019050919050565b60006132196010836136e8565b915061322482613ffa565b601082019050919050565b61323881613872565b82525050565b61324781613872565b82525050565b600061325882612ee7565b91506132648287612eb6565b915061326f82612f0a565b915061327b8286612eb6565b915061328682613045565b91506132918261320c565b915061329d8285612eb6565b91506132a882612fb9565b91506132b48284612eb6565b91506132bf826130ae565b915081905095945050505050565b60006132d8826131a3565b91506132e48284612eb6565b915081905092915050565b60006020820190506133046000830184612dc8565b92915050565b600060808201905061331f6000830187612dc8565b61332c6020830186612dc8565b613339604083018561323e565b818103606083015261334b8184612e44565b905095945050505050565b600060208201905081810360008301526133708184612dd7565b905092915050565b600060208201905061338d6000830184612e35565b92915050565b600060208201905081810360008301526133ad8184612e7d565b905092915050565b600060208201905081810360008301526133ce81612f2d565b9050919050565b600060208201905081810360008301526133ee81612f50565b9050919050565b6000602082019050818103600083015261340e81612f73565b9050919050565b6000602082019050818103600083015261342e81612f96565b9050919050565b6000602082019050818103600083015261344e81612fdc565b9050919050565b6000602082019050818103600083015261346e81612fff565b9050919050565b6000602082019050818103600083015261348e81613022565b9050919050565b600060208201905081810360008301526134ae81613068565b9050919050565b600060208201905081810360008301526134ce8161308b565b9050919050565b600060208201905081810360008301526134ee816130d1565b9050919050565b6000602082019050818103600083015261350e816130f4565b9050919050565b6000602082019050818103600083015261352e81613117565b9050919050565b6000602082019050818103600083015261354e8161313a565b9050919050565b6000602082019050818103600083015261356e8161315d565b9050919050565b6000602082019050818103600083015261358e81613180565b9050919050565b600060208201905081810360008301526135ae816131c6565b9050919050565b600060208201905081810360008301526135ce816131e9565b9050919050565b60006020820190506135ea600083018461323e565b92915050565b60006135fa61360b565b905061360682826138f0565b919050565b6000604051905090565b600067ffffffffffffffff8211156136305761362f6139f7565b5b61363982613a26565b9050602081019050919050565b600067ffffffffffffffff821115613661576136606139f7565b5b61366a82613a26565b9050602081019050919050565b6000819050602082019050919050565b600081519050919050565b600081519050919050565b600081519050919050565b6000602082019050919050565b600082825260208201905092915050565b600082825260208201905092915050565b600082825260208201905092915050565b600081905092915050565b60006136fe82613872565b915061370983613872565b9250827fffffffffffffffffffffffffffffffffffffffffffffffffffffffffffffffff0382111561373e5761373d61396a565b5b828201905092915050565b600061375482613872565b915061375f83613872565b92508261376f5761376e613999565b5b828204905092915050565b600061378582613872565b915061379083613872565b9250817fffffffffffffffffffffffffffffffffffffffffffffffffffffffffffffffff04831182151516156137c9576137c861396a565b5b828202905092915050565b60006137df82613872565b91506137ea83613872565b9250828210156137fd576137fc61396a565b5b828203905092915050565b600061381382613852565b9050919050565b60008115159050919050565b60007fffffffff0000000000000000000000000000000000000000000000000000000082169050919050565b600073ffffffffffffffffffffffffffffffffffffffff82169050919050565b6000819050919050565b82818337600083830152505050565b60005b838110156138a957808201518184015260208101905061388e565b838111156138b8576000848401525b50505050565b600060028204905060018216806138d657607f821691505b602082108114156138ea576138e96139c8565b5b50919050565b6138f982613a26565b810181811067ffffffffffffffff82111715613918576139176139f7565b5b80604052505050565b600061392c82613872565b91507fffffffffffffffffffffffffffffffffffffffffffffffffffffffffffffffff82141561395f5761395e61396a565b5b600182019050919050565b7f4e487b7100000000000000000000000000000000000000000000000000000000600052601160045260246000fd5b7f4e487b7100000000000000000000000000000000000000000000000000000000600052601260045260246000fd5b7f4e487b7100000000000000000000000000000000000000000000000000000000600052602260045260246000fd5b7f4e487b7100000000000000000000000000000000000000000000000000000000600052604160045260246000fd5b6000601f19601f8301169050919050565b7f7b226e616d65223a220000000000000000000000000000000000000000000000600082015250565b7f222c20226465736372697074696f6e223a202200000000000000000000000000600082015250565b7f455243373231456e756d657261626c653a206f776e657220696e646578206f7560008201527f74206f6620626f756e6473000000000000000000000000000000000000000000602082015250565b7f4552433732313a207472616e7366657220746f206e6f6e20455243373231526560008201527f63656976657220696d706c656d656e7465720000000000000000000000000000602082015250565b7f4f776e61626c653a206e6577206f776e657220697320746865207a65726f206160008201527f6464726573730000000000000000000000000000000000000000000000000000602082015250565b7f4552433732313a20746f6b656e20616c7265616479206d696e74656400000000600082015250565b7f2c2022696d616765223a22000000000000000000000000000000000000000000600082015250565b7f4552433732313a207472616e7366657220746f20746865207a65726f2061646460008201527f7265737300000000000000000000000000000000000000000000000000000000602082015250565b7f4552433732313a206f70657261746f7220717565727920666f72206e6f6e657860008201527f697374656e7420746f6b656e0000000000000000000000000000000000000000602082015250565b7f4552433732313a20617070726f76652063616c6c6572206973206e6f74206f7760008201527f6e6572206e6f7220617070726f76656420666f7220616c6c0000000000000000602082015250565b7f2200000000000000000000000000000000000000000000000000000000000000600082015250565b7f4552433732313a2062616c616e636520717565727920666f7220746865207a6560008201527f726f206164647265737300000000000000000000000000000000000000000000602082015250565b7f4552433732313a206f776e657220717565727920666f72206e6f6e657869737460008201527f656e7420746f6b656e0000000000000000000000000000000000000000000000602082015250565b7f227d000000000000000000000000000000000000000000000000000000000000600082015250565b7f4552433732313a206d696e7420746f20746865207a65726f2061646472657373600082015250565b7f4552433732313a20617070726f76656420717565727920666f72206e6f6e657860008201527f697374656e7420746f6b656e0000000000000000000000000000000000000000602082015250565b7f4f776e61626c653a2063616c6c6572206973206e6f7420746865206f776e6572600082015250565b7f4552433732313a207472616e73666572206f6620746f6b656e2074686174206960008201527f73206e6f74206f776e0000000000000000000000000000000000000000000000602082015250565b7f4552433732314d657461646174613a2055524920717565727920666f72206e6f60008201527f6e6578697374656e7420746f6b656e0000000000000000000000000000000000602082015250565b7f4552433732313a20617070726f76616c20746f2063757272656e74206f776e6560008201527f7200000000000000000000000000000000000000000000000000000000000000602082015250565b7f646174613a6170706c69636174696f6e2f6a736f6e3b6261736536342c000000600082015250565b7f4552433732313a207472616e736665722063616c6c6572206973206e6f74206f60008201527f776e6572206e6f7220617070726f766564000000000000000000000000000000602082015250565b7f455243373231456e756d657261626c653a20676c6f62616c20696e646578206f60008201527f7574206f6620626f756e64730000000000000000000000000000000000000000602082015250565b7f2c202261747472696275746573223a2000000000000000000000000000000000600082015250565b61402c81613808565b811461403757600080fd5b50565b6140438161381a565b811461404e57600080fd5b50565b61405a81613826565b811461406557600080fd5b50565b61407181613872565b811461407c57600080fd5b5056fe4142434445464748494a4b4c4d4e4f505152535455565758595a6162636465666768696a6b6c6d6e6f707172737475767778797a303132333435363738392b2fa264697066735822122096d1923fe30800174bbae0b11bcd9c4328370efa0ca8810be61e1202847bb38b64736f6c63430008040033",
  "linkReferences": {},
  "deployedLinkReferences": {}
}