{
  "_format": "hh-sol-artifact-1",
  "contractName": "Collection",
  "sourceName": "contracts/Collection.sol",
  "abi": [
    {
      "inputs": [],
      "stateMutability": "nonpayable",
      "type": "constructor"
    },
    {
      "anonymous": false,
      "inputs": [
        {
          "indexed": true,
          "internalType": "address",
          "name": "owner",
          "type": "address"
        },
        {
          "indexed": true,
          "internalType": "address",
          "name": "approved",
          "type": "address"
        },
        {
          "indexed": true,
          "internalType": "uint256",
          "name": "tokenId",
          "type": "uint256"
        }
      ],
      "name": "Approval",
      "type": "event"
    },
    {
      "anonymous": false,
      "inputs": [
        {
          "indexed": true,
          "internalType": "address",
          "name": "owner",
          "type": "address"
        },
        {
          "indexed": true,
          "internalType": "address",
          "name": "operator",
          "type": "address"
        },
        {
          "indexed": false,
          "internalType": "bool",
          "name": "approved",
          "type": "bool"
        }
      ],
      "name": "ApprovalForAll",
      "type": "event"
    },
    {
      "anonymous": false,
      "inputs": [
        {
          "indexed": true,
          "internalType": "address",
          "name": "previousOwner",
          "type": "address"
        },
        {
          "indexed": true,
          "internalType": "address",
          "name": "newOwner",
          "type": "address"
        }
      ],
      "name": "OwnershipTransferred",
      "type": "event"
    },
    {
      "anonymous": false,
      "inputs": [
        {
          "indexed": true,
          "internalType": "address",
          "name": "from",
          "type": "address"
        },
        {
          "indexed": true,
          "internalType": "address",
          "name": "to",
          "type": "address"
        },
        {
          "indexed": true,
          "internalType": "uint256",
          "name": "tokenId",
          "type": "uint256"
        }
      ],
      "name": "Transfer",
      "type": "event"
    },
    {
      "inputs": [
        {
          "internalType": "address",
          "name": "to",
          "type": "address"
        },
        {
          "internalType": "uint256",
          "name": "tokenId",
          "type": "uint256"
        }
      ],
      "name": "approve",
      "outputs": [],
      "stateMutability": "nonpayable",
      "type": "function"
    },
    {
      "inputs": [
        {
          "internalType": "address",
          "name": "owner",
          "type": "address"
        }
      ],
      "name": "balanceOf",
      "outputs": [
        {
          "internalType": "uint256",
          "name": "",
          "type": "uint256"
        }
      ],
      "stateMutability": "view",
      "type": "function"
    },
    {
      "inputs": [],
      "name": "baseExtension",
      "outputs": [
        {
          "internalType": "string",
          "name": "",
          "type": "string"
        }
      ],
      "stateMutability": "view",
      "type": "function"
    },
    {
      "inputs": [],
      "name": "baseURI",
      "outputs": [
        {
          "internalType": "string",
          "name": "",
          "type": "string"
        }
      ],
      "stateMutability": "view",
      "type": "function"
    },
    {
      "inputs": [],
      "name": "cost",
      "outputs": [
        {
          "internalType": "uint256",
          "name": "",
          "type": "uint256"
        }
      ],
      "stateMutability": "view",
      "type": "function"
    },
    {
      "inputs": [
        {
          "internalType": "string",
          "name": "_imageURI",
          "type": "string"
        },
        {
          "internalType": "string",
          "name": "_name",
          "type": "string"
        },
        {
          "internalType": "string",
          "name": "_description",
          "type": "string"
        },
        {
          "internalType": "string",
          "name": "_properties",
          "type": "string"
        }
      ],
      "name": "formatTokenURI",
      "outputs": [
        {
          "internalType": "string",
          "name": "",
          "type": "string"
        }
      ],
      "stateMutability": "pure",
      "type": "function"
    },
    {
      "inputs": [
        {
          "internalType": "uint256",
          "name": "tokenId",
          "type": "uint256"
        }
      ],
      "name": "getApproved",
      "outputs": [
        {
          "internalType": "address",
          "name": "",
          "type": "address"
        }
      ],
      "stateMutability": "view",
      "type": "function"
    },
    {
      "inputs": [
        {
          "internalType": "address",
          "name": "owner",
          "type": "address"
        },
        {
          "internalType": "address",
          "name": "operator",
          "type": "address"
        }
      ],
      "name": "isApprovedForAll",
      "outputs": [
        {
          "internalType": "bool",
          "name": "",
          "type": "bool"
        }
      ],
      "stateMutability": "view",
      "type": "function"
    },
    {
      "inputs": [],
      "name": "maxMintAmount",
      "outputs": [
        {
          "internalType": "uint256",
          "name": "",
          "type": "uint256"
        }
      ],
      "stateMutability": "view",
      "type": "function"
    },
    {
      "inputs": [],
      "name": "maxSupply",
      "outputs": [
        {
          "internalType": "uint256",
          "name": "",
          "type": "uint256"
        }
      ],
      "stateMutability": "view",
      "type": "function"
    },
    {
      "inputs": [
        {
          "internalType": "address",
          "name": "_to",
          "type": "address"
        },
        {
          "internalType": "uint256",
          "name": "_mintAmount",
          "type": "uint256"
        },
        {
          "internalType": "string",
          "name": "_imageURI",
          "type": "string"
        },
        {
          "internalType": "string",
          "name": "_name",
          "type": "string"
        },
        {
          "internalType": "string",
          "name": "_description",
          "type": "string"
        },
        {
          "internalType": "string",
          "name": "_properties",
          "type": "string"
        }
      ],
      "name": "mint",
      "outputs": [],
      "stateMutability": "payable",
      "type": "function"
    },
    {
      "inputs": [],
      "name": "name",
      "outputs": [
        {
          "internalType": "string",
          "name": "",
          "type": "string"
        }
      ],
      "stateMutability": "view",
      "type": "function"
    },
    {
      "inputs": [],
      "name": "owner",
      "outputs": [
        {
          "internalType": "address",
          "name": "",
          "type": "address"
        }
      ],
      "stateMutability": "view",
      "type": "function"
    },
    {
      "inputs": [
        {
          "internalType": "uint256",
          "name": "tokenId",
          "type": "uint256"
        }
      ],
      "name": "ownerOf",
      "outputs": [
        {
          "internalType": "address",
          "name": "",
          "type": "address"
        }
      ],
      "stateMutability": "view",
      "type": "function"
    },
    {
      "inputs": [
        {
          "internalType": "bool",
          "name": "_state",
          "type": "bool"
        }
      ],
      "name": "pause",
      "outputs": [],
      "stateMutability": "nonpayable",
      "type": "function"
    },
    {
      "inputs": [],
      "name": "paused",
      "outputs": [
        {
          "internalType": "bool",
          "name": "",
          "type": "bool"
        }
      ],
      "stateMutability": "view",
      "type": "function"
    },
    {
      "inputs": [],
      "name": "renounceOwnership",
      "outputs": [],
      "stateMutability": "nonpayable",
      "type": "function"
    },
    {
      "inputs": [
        {
          "internalType": "address",
          "name": "from",
          "type": "address"
        },
        {
          "internalType": "address",
          "name": "to",
          "type": "address"
        },
        {
          "internalType": "uint256",
          "name": "tokenId",
          "type": "uint256"
        }
      ],
      "name": "safeTransferFrom",
      "outputs": [],
      "stateMutability": "nonpayable",
      "type": "function"
    },
    {
      "inputs": [
        {
          "internalType": "address",
          "name": "from",
          "type": "address"
        },
        {
          "internalType": "address",
          "name": "to",
          "type": "address"
        },
        {
          "internalType": "uint256",
          "name": "tokenId",
          "type": "uint256"
        },
        {
          "internalType": "bytes",
          "name": "_data",
          "type": "bytes"
        }
      ],
      "name": "safeTransferFrom",
      "outputs": [],
      "stateMutability": "nonpayable",
      "type": "function"
    },
    {
      "inputs": [
        {
          "internalType": "address",
          "name": "operator",
          "type": "address"
        },
        {
          "internalType": "bool",
          "name": "approved",
          "type": "bool"
        }
      ],
      "name": "setApprovalForAll",
      "outputs": [],
      "stateMutability": "nonpayable",
      "type": "function"
    },
    {
      "inputs": [
        {
          "internalType": "string",
          "name": "_newBaseExtension",
          "type": "string"
        }
      ],
      "name": "setBaseExtension",
      "outputs": [],
      "stateMutability": "nonpayable",
      "type": "function"
    },
    {
      "inputs": [
        {
          "internalType": "string",
          "name": "_newBaseURI",
          "type": "string"
        }
      ],
      "name": "setBaseURI",
      "outputs": [],
      "stateMutability": "nonpayable",
      "type": "function"
    },
    {
      "inputs": [
        {
          "internalType": "uint256",
          "name": "_newmaxMintAmount",
          "type": "uint256"
        }
      ],
      "name": "setmaxMintAmount",
      "outputs": [],
      "stateMutability": "nonpayable",
      "type": "function"
    },
    {
      "inputs": [
        {
          "internalType": "bytes4",
          "name": "interfaceId",
          "type": "bytes4"
        }
      ],
      "name": "supportsInterface",
      "outputs": [
        {
          "internalType": "bool",
          "name": "",
          "type": "bool"
        }
      ],
      "stateMutability": "view",
      "type": "function"
    },
    {
      "inputs": [],
      "name": "symbol",
      "outputs": [
        {
          "internalType": "string",
          "name": "",
          "type": "string"
        }
      ],
      "stateMutability": "view",
      "type": "function"
    },
    {
      "inputs": [
        {
          "internalType": "uint256",
          "name": "index",
          "type": "uint256"
        }
      ],
      "name": "tokenByIndex",
      "outputs": [
        {
          "internalType": "uint256",
          "name": "",
          "type": "uint256"
        }
      ],
      "stateMutability": "view",
      "type": "function"
    },
    {
      "inputs": [
        {
          "internalType": "address",
          "name": "owner",
          "type": "address"
        },
        {
          "internalType": "uint256",
          "name": "index",
          "type": "uint256"
        }
      ],
      "name": "tokenOfOwnerByIndex",
      "outputs": [
        {
          "internalType": "uint256",
          "name": "",
          "type": "uint256"
        }
      ],
      "stateMutability": "view",
      "type": "function"
    },
    {
      "inputs": [
        {
          "internalType": "uint256",
          "name": "tokenId",
          "type": "uint256"
        }
      ],
      "name": "tokenURI",
      "outputs": [
        {
          "internalType": "string",
          "name": "",
          "type": "string"
        }
      ],
      "stateMutability": "view",
      "type": "function"
    },
    {
      "inputs": [],
      "name": "totalSupply",
      "outputs": [
        {
          "internalType": "uint256",
          "name": "",
          "type": "uint256"
        }
      ],
      "stateMutability": "view",
      "type": "function"
    },
    {
      "inputs": [
        {
          "internalType": "address",
          "name": "from",
          "type": "address"
        },
        {
          "internalType": "address",
          "name": "to",
          "type": "address"
        },
        {
          "internalType": "uint256",
          "name": "tokenId",
          "type": "uint256"
        }
      ],
      "name": "transferFrom",
      "outputs": [],
      "stateMutability": "nonpayable",
      "type": "function"
    },
    {
      "inputs": [
        {
          "internalType": "address",
          "name": "newOwner",
          "type": "address"
        }
      ],
      "name": "transferOwnership",
      "outputs": [],
      "stateMutability": "nonpayable",
      "type": "function"
    },
    {
      "inputs": [
        {
          "internalType": "address",
          "name": "_owner",
          "type": "address"
        }
      ],
      "name": "walletOfOwner",
      "outputs": [
        {
          "internalType": "uint256[]",
          "name": "",
          "type": "uint256[]"
        }
      ],
      "stateMutability": "view",
      "type": "function"
    },
    {
      "inputs": [],
      "name": "withdraw",
      "outputs": [],
      "stateMutability": "payable",
      "type": "function"
    }
  ],
  "bytecode": "0x60806040526040518060400160405280600581526020017f2e6a736f6e000000000000000000000000000000000000000000000000000000815250600c90805190602001906200005192919062000226565b5066038d7ea4c68000600d55620186a0600e556005600f556000601060006101000a81548160ff0219169083151502179055503480156200009157600080fd5b506040518060400160405280601681526020017f4e657432446576204e465420436f6c6c656374696f6e000000000000000000008152506040518060400160405280600381526020017f4e3244000000000000000000000000000000000000000000000000000000000081525081600090805190602001906200011692919062000226565b5080600190805190602001906200012f92919062000226565b50505062000152620001466200015860201b60201c565b6200016060201b60201c565b6200033b565b600033905090565b6000600a60009054906101000a900473ffffffffffffffffffffffffffffffffffffffff16905081600a60006101000a81548173ffffffffffffffffffffffffffffffffffffffff021916908373ffffffffffffffffffffffffffffffffffffffff1602179055508173ffffffffffffffffffffffffffffffffffffffff168173ffffffffffffffffffffffffffffffffffffffff167f8be0079c531659141344cd1fd0a4f28419497f9722a3daafe3b4186f6b6457e060405160405180910390a35050565b8280546200023490620002d6565b90600052602060002090601f016020900481019282620002585760008555620002a4565b82601f106200027357805160ff1916838001178555620002a4565b82800160010185558215620002a4579182015b82811115620002a357825182559160200191906001019062000286565b5b509050620002b39190620002b7565b5090565b5b80821115620002d2576000816000905550600101620002b8565b5090565b60006002820490506001821680620002ef57607f821691505b602082108114156200030657620003056200030c565b5b50919050565b7f4e487b7100000000000000000000000000000000000000000000000000000000600052602260045260246000fd5b6142cd806200034b6000396000f3fe6080604052600436106101ee5760003560e01c80636352211e1161010d578063a22cb465116100a0578063d5abeb011161006f578063d5abeb01146106e3578063da3ef23f1461070e578063e985e9c514610737578063f2fde38b14610774578063f66d61a31461079d576101ee565b8063a22cb46514610629578063b88d4fde14610652578063c66828621461067b578063c87b56dd146106a6576101ee565b80637f00c7a6116100dc5780637f00c7a61461058e5780638da5cb5b146105b757806395d89b41146105e2578063a21a3c1c1461060d576101ee565b80636352211e146104d25780636c0360eb1461050f57806370a082311461053a578063715018a614610577576101ee565b806323b872dd11610185578063438b630011610154578063438b6300146104045780634f6ccce71461044157806355f804b31461047e5780635c975abb146104a7576101ee565b806323b872dd1461036b5780632f745c59146103945780633ccfd60b146103d157806342842e0e146103db576101ee565b8063095ea7b3116101c1578063095ea7b3146102c157806313faede6146102ea57806318160ddd14610315578063239c70ae14610340576101ee565b806301ffc9a7146101f357806302329a291461023057806306fdde0314610259578063081812fc14610284575b600080fd5b3480156101ff57600080fd5b5061021a60048036038101906102159190612d31565b6107da565b60405161022791906134be565b60405180910390f35b34801561023c57600080fd5b5061025760048036038101906102529190612d08565b610854565b005b34801561026557600080fd5b5061026e610879565b60405161027b91906134d9565b60405180910390f35b34801561029057600080fd5b506102ab60048036038101906102a69190612e87565b61090b565b6040516102b89190613435565b60405180910390f35b3480156102cd57600080fd5b506102e860048036038101906102e39190612be3565b610990565b005b3480156102f657600080fd5b506102ff610aa8565b60405161030c919061375b565b60405180910390f35b34801561032157600080fd5b5061032a610aae565b604051610337919061375b565b60405180910390f35b34801561034c57600080fd5b50610355610abb565b604051610362919061375b565b60405180910390f35b34801561037757600080fd5b50610392600480360381019061038d9190612add565b610ac1565b005b3480156103a057600080fd5b506103bb60048036038101906103b69190612be3565b610b21565b6040516103c8919061375b565b60405180910390f35b6103d9610bc6565b005b3480156103e757600080fd5b5061040260048036038101906103fd9190612add565b610c0e565b005b34801561041057600080fd5b5061042b60048036038101906104269190612a78565b610c2e565b604051610438919061349c565b60405180910390f35b34801561044d57600080fd5b5061046860048036038101906104639190612e87565b610d28565b604051610475919061375b565b60405180910390f35b34801561048a57600080fd5b506104a560048036038101906104a09190612d83565b610dbf565b005b3480156104b357600080fd5b506104bc610de1565b6040516104c991906134be565b60405180910390f35b3480156104de57600080fd5b506104f960048036038101906104f49190612e87565b610df4565b6040516105069190613435565b60405180910390f35b34801561051b57600080fd5b50610524610ea6565b60405161053191906134d9565b60405180910390f35b34801561054657600080fd5b50610561600480360381019061055c9190612a78565b610f34565b60405161056e919061375b565b60405180910390f35b34801561058357600080fd5b5061058c610fec565b005b34801561059a57600080fd5b506105b560048036038101906105b09190612e87565b611000565b005b3480156105c357600080fd5b506105cc611012565b6040516105d99190613435565b60405180910390f35b3480156105ee57600080fd5b506105f761103c565b60405161060491906134d9565b60405180910390f35b61062760048036038101906106229190612c1f565b6110ce565b005b34801561063557600080fd5b50610650600480360381019061064b9190612ba7565b611214565b005b34801561065e57600080fd5b5061067960048036038101906106749190612b2c565b611395565b005b34801561068757600080fd5b506106906113f7565b60405161069d91906134d9565b60405180910390f35b3480156106b257600080fd5b506106cd60048036038101906106c89190612e87565b611485565b6040516106da91906134d9565b60405180910390f35b3480156106ef57600080fd5b506106f8611578565b604051610705919061375b565b60405180910390f35b34801561071a57600080fd5b5061073560048036038101906107309190612d83565b61157e565b005b34801561074357600080fd5b5061075e60048036038101906107599190612aa1565b6115a0565b60405161076b91906134be565b60405180910390f35b34801561078057600080fd5b5061079b60048036038101906107969190612a78565b611634565b005b3480156107a957600080fd5b506107c460048036038101906107bf9190612dc4565b6116b8565b6040516107d191906134d9565b60405180910390f35b60007f780e9d63000000000000000000000000000000000000000000000000000000007bffffffffffffffffffffffffffffffffffffffffffffffffffffffff1916827bffffffffffffffffffffffffffffffffffffffffffffffffffffffff1916148061084d575061084c82611711565b5b9050919050565b61085c6117f3565b80601060006101000a81548160ff02191690831515021790555050565b60606000805461088890613a44565b80601f01602080910402602001604051908101604052809291908181526020018280546108b490613a44565b80156109015780601f106108d657610100808354040283529160200191610901565b820191906000526020600020905b8154815290600101906020018083116108e457829003601f168201915b5050505050905090565b600061091682611871565b610955576040517f08c379a000000000000000000000000000000000000000000000000000000000815260040161094c9061365b565b60405180910390fd5b6004600083815260200190815260200160002060009054906101000a900473ffffffffffffffffffffffffffffffffffffffff169050919050565b600061099b82610df4565b90508073ffffffffffffffffffffffffffffffffffffffff168373ffffffffffffffffffffffffffffffffffffffff161415610a0c576040517f08c379a0000000000000000000000000000000000000000000000000000000008152600401610a03906136db565b60405180910390fd5b8073ffffffffffffffffffffffffffffffffffffffff16610a2b6118dd565b73ffffffffffffffffffffffffffffffffffffffff161480610a5a5750610a5981610a546118dd565b6115a0565b5b610a99576040517f08c379a0000000000000000000000000000000000000000000000000000000008152600401610a90906135db565b60405180910390fd5b610aa383836118e5565b505050565b600d5481565b6000600880549050905090565b600f5481565b610ad2610acc6118dd565b8261199e565b610b11576040517f08c379a0000000000000000000000000000000000000000000000000000000008152600401610b08906136fb565b60405180910390fd5b610b1c838383611a7c565b505050565b6000610b2c83610f34565b8210610b6d576040517f08c379a0000000000000000000000000000000000000000000000000000000008152600401610b64906134fb565b60405180910390fd5b600660008473ffffffffffffffffffffffffffffffffffffffff1673ffffffffffffffffffffffffffffffffffffffff168152602001908152602001600020600083815260200190815260200160002054905092915050565b610bce6117f3565b3373ffffffffffffffffffffffffffffffffffffffff166108fc479081150290604051600060405180830381858888f19350505050610c0c57600080fd5b565b610c2983838360405180602001604052806000815250611395565b505050565b60606000610c3b83610f34565b905060008167ffffffffffffffff811115610c7f577f4e487b7100000000000000000000000000000000000000000000000000000000600052604160045260246000fd5b604051908082528060200260200182016040528015610cad5781602001602082028036833780820191505090505b50905060005b82811015610d1d57610cc58582610b21565b828281518110610cfe577f4e487b7100000000000000000000000000000000000000000000000000000000600052603260045260246000fd5b6020026020010181815250508080610d1590613aa7565b915050610cb3565b508092505050919050565b6000610d32610aae565b8210610d73576040517f08c379a0000000000000000000000000000000000000000000000000000000008152600401610d6a9061373b565b60405180910390fd5b60088281548110610dad577f4e487b7100000000000000000000000000000000000000000000000000000000600052603260045260246000fd5b90600052602060002001549050919050565b610dc76117f3565b80600b9080519060200190610ddd92919061289c565b5050565b601060009054906101000a900460ff1681565b6000806002600084815260200190815260200160002060009054906101000a900473ffffffffffffffffffffffffffffffffffffffff169050600073ffffffffffffffffffffffffffffffffffffffff168173ffffffffffffffffffffffffffffffffffffffff161415610e9d576040517f08c379a0000000000000000000000000000000000000000000000000000000008152600401610e949061361b565b60405180910390fd5b80915050919050565b600b8054610eb390613a44565b80601f0160208091040260200160405190810160405280929190818152602001828054610edf90613a44565b8015610f2c5780601f10610f0157610100808354040283529160200191610f2c565b820191906000526020600020905b815481529060010190602001808311610f0f57829003601f168201915b505050505081565b60008073ffffffffffffffffffffffffffffffffffffffff168273ffffffffffffffffffffffffffffffffffffffff161415610fa5576040517f08c379a0000000000000000000000000000000000000000000000000000000008152600401610f9c906135fb565b60405180910390fd5b600360008373ffffffffffffffffffffffffffffffffffffffff1673ffffffffffffffffffffffffffffffffffffffff168152602001908152602001600020549050919050565b610ff46117f3565b610ffe6000611cd8565b565b6110086117f3565b80600f8190555050565b6000600a60009054906101000a900473ffffffffffffffffffffffffffffffffffffffff16905090565b60606001805461104b90613a44565b80601f016020809104026020016040519081016040528092919081815260200182805461107790613a44565b80156110c45780601f10611099576101008083540402835291602001916110c4565b820191906000526020600020905b8154815290600101906020018083116110a757829003601f168201915b5050505050905090565b60006110d8610aae565b9050601060009054906101000a900460ff16156110f457600080fd5b6000861161110157600080fd5b600f5486111561111057600080fd5b600e54868261111f9190613879565b111561112a57600080fd5b611132611012565b73ffffffffffffffffffffffffffffffffffffffff163373ffffffffffffffffffffffffffffffffffffffff16146111b45785600d546111729190613900565b34146111b3576040517f08c379a00000000000000000000000000000000000000000000000000000000081526004016111aa9061371b565b60405180910390fd5b5b6000600190505b86811161120a576111d78882846111d29190613879565b611d9e565b6111f781836111e69190613879565b6111f2888888886116b8565b611dbc565b808061120290613aa7565b9150506111bb565b5050505050505050565b61121c6118dd565b73ffffffffffffffffffffffffffffffffffffffff168273ffffffffffffffffffffffffffffffffffffffff16141561128a576040517f08c379a00000000000000000000000000000000000000000000000000000000081526004016112819061359b565b60405180910390fd5b80600560006112976118dd565b73ffffffffffffffffffffffffffffffffffffffff1673ffffffffffffffffffffffffffffffffffffffff16815260200190815260200160002060008473ffffffffffffffffffffffffffffffffffffffff1673ffffffffffffffffffffffffffffffffffffffff16815260200190815260200160002060006101000a81548160ff0219169083151502179055508173ffffffffffffffffffffffffffffffffffffffff166113446118dd565b73ffffffffffffffffffffffffffffffffffffffff167f17307eab39ab6107e8899845ad3d59bd9653f200f220920489ca2b5937696c318360405161138991906134be565b60405180910390a35050565b6113a66113a06118dd565b8361199e565b6113e5576040517f08c379a00000000000000000000000000000000000000000000000000000000081526004016113dc906136fb565b60405180910390fd5b6113f184848484611de8565b50505050565b600c805461140490613a44565b80601f016020809104026020016040519081016040528092919081815260200182805461143090613a44565b801561147d5780601f106114525761010080835404028352916020019161147d565b820191906000526020600020905b81548152906001019060200180831161146057829003601f168201915b505050505081565b606061149082611871565b6114cf576040517f08c379a00000000000000000000000000000000000000000000000000000000081526004016114c6906136bb565b60405180910390fd5b60006011600084815260200190815260200160002080546114ef90613a44565b80601f016020809104026020016040519081016040528092919081815260200182805461151b90613a44565b80156115685780601f1061153d57610100808354040283529160200191611568565b820191906000526020600020905b81548152906001019060200180831161154b57829003601f168201915b5050505050905080915050919050565b600e5481565b6115866117f3565b80600c908051906020019061159c92919061289c565b5050565b6000600560008473ffffffffffffffffffffffffffffffffffffffff1673ffffffffffffffffffffffffffffffffffffffff16815260200190815260200160002060008373ffffffffffffffffffffffffffffffffffffffff1673ffffffffffffffffffffffffffffffffffffffff16815260200190815260200160002060009054906101000a900460ff16905092915050565b61163c6117f3565b600073ffffffffffffffffffffffffffffffffffffffff168173ffffffffffffffffffffffffffffffffffffffff1614156116ac576040517f08c379a00000000000000000000000000000000000000000000000000000000081526004016116a39061353b565b60405180910390fd5b6116b581611cd8565b50565b60606116e8848484886040516020016116d49493929190613393565b604051602081830303815290604052611e44565b6040516020016116f89190613413565b6040516020818303038152906040529050949350505050565b60007f80ac58cd000000000000000000000000000000000000000000000000000000007bffffffffffffffffffffffffffffffffffffffffffffffffffffffff1916827bffffffffffffffffffffffffffffffffffffffffffffffffffffffff191614806117dc57507f5b5e139f000000000000000000000000000000000000000000000000000000007bffffffffffffffffffffffffffffffffffffffffffffffffffffffff1916827bffffffffffffffffffffffffffffffffffffffffffffffffffffffff1916145b806117ec57506117eb82611fce565b5b9050919050565b6117fb6118dd565b73ffffffffffffffffffffffffffffffffffffffff16611819611012565b73ffffffffffffffffffffffffffffffffffffffff161461186f576040517f08c379a00000000000000000000000000000000000000000000000000000000081526004016118669061367b565b60405180910390fd5b565b60008073ffffffffffffffffffffffffffffffffffffffff166002600084815260200190815260200160002060009054906101000a900473ffffffffffffffffffffffffffffffffffffffff1673ffffffffffffffffffffffffffffffffffffffff1614159050919050565b600033905090565b816004600083815260200190815260200160002060006101000a81548173ffffffffffffffffffffffffffffffffffffffff021916908373ffffffffffffffffffffffffffffffffffffffff160217905550808273ffffffffffffffffffffffffffffffffffffffff1661195883610df4565b73ffffffffffffffffffffffffffffffffffffffff167f8c5be1e5ebec7d5bd14f71427d1e84f3dd0314c0f7b2291e5b200ac8c7c3b92560405160405180910390a45050565b60006119a982611871565b6119e8576040517f08c379a00000000000000000000000000000000000000000000000000000000081526004016119df906135bb565b60405180910390fd5b60006119f383610df4565b90508073ffffffffffffffffffffffffffffffffffffffff168473ffffffffffffffffffffffffffffffffffffffff161480611a6257508373ffffffffffffffffffffffffffffffffffffffff16611a4a8461090b565b73ffffffffffffffffffffffffffffffffffffffff16145b80611a735750611a7281856115a0565b5b91505092915050565b8273ffffffffffffffffffffffffffffffffffffffff16611a9c82610df4565b73ffffffffffffffffffffffffffffffffffffffff1614611af2576040517f08c379a0000000000000000000000000000000000000000000000000000000008152600401611ae99061369b565b60405180910390fd5b600073ffffffffffffffffffffffffffffffffffffffff168273ffffffffffffffffffffffffffffffffffffffff161415611b62576040517f08c379a0000000000000000000000000000000000000000000000000000000008152600401611b599061357b565b60405180910390fd5b611b6d838383612038565b611b786000826118e5565b6001600360008573ffffffffffffffffffffffffffffffffffffffff1673ffffffffffffffffffffffffffffffffffffffff1681526020019081526020016000206000828254611bc8919061395a565b925050819055506001600360008473ffffffffffffffffffffffffffffffffffffffff1673ffffffffffffffffffffffffffffffffffffffff1681526020019081526020016000206000828254611c1f9190613879565b92505081905550816002600083815260200190815260200160002060006101000a81548173ffffffffffffffffffffffffffffffffffffffff021916908373ffffffffffffffffffffffffffffffffffffffff160217905550808273ffffffffffffffffffffffffffffffffffffffff168473ffffffffffffffffffffffffffffffffffffffff167fddf252ad1be2c89b69c2b068fc378daa952ba7f163c4a11628f55a4df523b3ef60405160405180910390a4505050565b6000600a60009054906101000a900473ffffffffffffffffffffffffffffffffffffffff16905081600a60006101000a81548173ffffffffffffffffffffffffffffffffffffffff021916908373ffffffffffffffffffffffffffffffffffffffff1602179055508173ffffffffffffffffffffffffffffffffffffffff168173ffffffffffffffffffffffffffffffffffffffff167f8be0079c531659141344cd1fd0a4f28419497f9722a3daafe3b4186f6b6457e060405160405180910390a35050565b611db882826040518060200160405280600081525061214c565b5050565b80601160008481526020019081526020016000209080519060200190611de392919061289c565b505050565b611df3848484611a7c565b611dff848484846121a7565b611e3e576040517f08c379a0000000000000000000000000000000000000000000000000000000008152600401611e359061351b565b60405180910390fd5b50505050565b6060600082511415611e6757604051806020016040528060008152509050611fc9565b60006040518060600160405280604081526020016142586040913990506000600360028551611e969190613879565b611ea091906138cf565b6004611eac9190613900565b67ffffffffffffffff811115611eeb577f4e487b7100000000000000000000000000000000000000000000000000000000600052604160045260246000fd5b6040519080825280601f01601f191660200182016040528015611f1d5781602001600182028036833780820191505090505b509050600182016020820185865187015b80821015611f89576003820191508151603f8160121c168501518453600184019350603f81600c1c168501518453600184019350603f8160061c168501518453600184019350603f8116850151845360018401935050611f2e565b5050600386510660018114611fa55760028114611fb857611fc0565b603d6001830353603d6002830353611fc0565b603d60018303535b50505080925050505b919050565b60007f01ffc9a7000000000000000000000000000000000000000000000000000000007bffffffffffffffffffffffffffffffffffffffffffffffffffffffff1916827bffffffffffffffffffffffffffffffffffffffffffffffffffffffff1916149050919050565b61204383838361233e565b600073ffffffffffffffffffffffffffffffffffffffff168373ffffffffffffffffffffffffffffffffffffffff1614156120865761208181612343565b6120c5565b8173ffffffffffffffffffffffffffffffffffffffff168373ffffffffffffffffffffffffffffffffffffffff16146120c4576120c3838261238c565b5b5b600073ffffffffffffffffffffffffffffffffffffffff168273ffffffffffffffffffffffffffffffffffffffff16141561210857612103816124f9565b612147565b8273ffffffffffffffffffffffffffffffffffffffff168273ffffffffffffffffffffffffffffffffffffffff161461214657612145828261263c565b5b5b505050565b61215683836126bb565b61216360008484846121a7565b6121a2576040517f08c379a00000000000000000000000000000000000000000000000000000000081526004016121999061351b565b60405180910390fd5b505050565b60006121c88473ffffffffffffffffffffffffffffffffffffffff16612889565b15612331578373ffffffffffffffffffffffffffffffffffffffff1663150b7a026121f16118dd565b8786866040518563ffffffff1660e01b81526004016122139493929190613450565b602060405180830381600087803b15801561222d57600080fd5b505af192505050801561225e57506040513d601f19601f8201168201806040525081019061225b9190612d5a565b60015b6122e1573d806000811461228e576040519150601f19603f3d011682016040523d82523d6000602084013e612293565b606091505b506000815114156122d9576040517f08c379a00000000000000000000000000000000000000000000000000000000081526004016122d09061351b565b60405180910390fd5b805181602001fd5b63150b7a0260e01b7bffffffffffffffffffffffffffffffffffffffffffffffffffffffff1916817bffffffffffffffffffffffffffffffffffffffffffffffffffffffff191614915050612336565b600190505b949350505050565b505050565b6008805490506009600083815260200190815260200160002081905550600881908060018154018082558091505060019003906000526020600020016000909190919091505550565b6000600161239984610f34565b6123a3919061395a565b9050600060076000848152602001908152602001600020549050818114612488576000600660008673ffffffffffffffffffffffffffffffffffffffff1673ffffffffffffffffffffffffffffffffffffffff168152602001908152602001600020600084815260200190815260200160002054905080600660008773ffffffffffffffffffffffffffffffffffffffff1673ffffffffffffffffffffffffffffffffffffffff168152602001908152602001600020600084815260200190815260200160002081905550816007600083815260200190815260200160002081905550505b6007600084815260200190815260200160002060009055600660008573ffffffffffffffffffffffffffffffffffffffff1673ffffffffffffffffffffffffffffffffffffffff16815260200190815260200160002060008381526020019081526020016000206000905550505050565b6000600160088054905061250d919061395a565b9050600060096000848152602001908152602001600020549050600060088381548110612563577f4e487b7100000000000000000000000000000000000000000000000000000000600052603260045260246000fd5b9060005260206000200154905080600883815481106125ab577f4e487b7100000000000000000000000000000000000000000000000000000000600052603260045260246000fd5b906000526020600020018190555081600960008381526020019081526020016000208190555060096000858152602001908152602001600020600090556008805480612620577f4e487b7100000000000000000000000000000000000000000000000000000000600052603160045260246000fd5b6001900381819060005260206000200160009055905550505050565b600061264783610f34565b905081600660008573ffffffffffffffffffffffffffffffffffffffff1673ffffffffffffffffffffffffffffffffffffffff168152602001908152602001600020600083815260200190815260200160002081905550806007600084815260200190815260200160002081905550505050565b600073ffffffffffffffffffffffffffffffffffffffff168273ffffffffffffffffffffffffffffffffffffffff16141561272b576040517f08c379a00000000000000000000000000000000000000000000000000000000081526004016127229061363b565b60405180910390fd5b61273481611871565b15612774576040517f08c379a000000000000000000000000000000000000000000000000000000000815260040161276b9061355b565b60405180910390fd5b61278060008383612038565b6001600360008473ffffffffffffffffffffffffffffffffffffffff1673ffffffffffffffffffffffffffffffffffffffff16815260200190815260200160002060008282546127d09190613879565b92505081905550816002600083815260200190815260200160002060006101000a81548173ffffffffffffffffffffffffffffffffffffffff021916908373ffffffffffffffffffffffffffffffffffffffff160217905550808273ffffffffffffffffffffffffffffffffffffffff16600073ffffffffffffffffffffffffffffffffffffffff167fddf252ad1be2c89b69c2b068fc378daa952ba7f163c4a11628f55a4df523b3ef60405160405180910390a45050565b600080823b905060008111915050919050565b8280546128a890613a44565b90600052602060002090601f0160209004810192826128ca5760008555612911565b82601f106128e357805160ff1916838001178555612911565b82800160010185558215612911579182015b828111156129105782518255916020019190600101906128f5565b5b50905061291e9190612922565b5090565b5b8082111561293b576000816000905550600101612923565b5090565b600061295261294d8461379b565b613776565b90508281526020810184848401111561296a57600080fd5b612975848285613a02565b509392505050565b600061299061298b846137cc565b613776565b9050828152602081018484840111156129a857600080fd5b6129b3848285613a02565b509392505050565b6000813590506129ca816141fb565b92915050565b6000813590506129df81614212565b92915050565b6000813590506129f481614229565b92915050565b600081519050612a0981614229565b92915050565b600082601f830112612a2057600080fd5b8135612a3084826020860161293f565b91505092915050565b600082601f830112612a4a57600080fd5b8135612a5a84826020860161297d565b91505092915050565b600081359050612a7281614240565b92915050565b600060208284031215612a8a57600080fd5b6000612a98848285016129bb565b91505092915050565b60008060408385031215612ab457600080fd5b6000612ac2858286016129bb565b9250506020612ad3858286016129bb565b9150509250929050565b600080600060608486031215612af257600080fd5b6000612b00868287016129bb565b9350506020612b11868287016129bb565b9250506040612b2286828701612a63565b9150509250925092565b60008060008060808587031215612b4257600080fd5b6000612b50878288016129bb565b9450506020612b61878288016129bb565b9350506040612b7287828801612a63565b925050606085013567ffffffffffffffff811115612b8f57600080fd5b612b9b87828801612a0f565b91505092959194509250565b60008060408385031215612bba57600080fd5b6000612bc8858286016129bb565b9250506020612bd9858286016129d0565b9150509250929050565b60008060408385031215612bf657600080fd5b6000612c04858286016129bb565b9250506020612c1585828601612a63565b9150509250929050565b60008060008060008060c08789031215612c3857600080fd5b6000612c4689828a016129bb565b9650506020612c5789828a01612a63565b955050604087013567ffffffffffffffff811115612c7457600080fd5b612c8089828a01612a39565b945050606087013567ffffffffffffffff811115612c9d57600080fd5b612ca989828a01612a39565b935050608087013567ffffffffffffffff811115612cc657600080fd5b612cd289828a01612a39565b92505060a087013567ffffffffffffffff811115612cef57600080fd5b612cfb89828a01612a39565b9150509295509295509295565b600060208284031215612d1a57600080fd5b6000612d28848285016129d0565b91505092915050565b600060208284031215612d4357600080fd5b6000612d51848285016129e5565b91505092915050565b600060208284031215612d6c57600080fd5b6000612d7a848285016129fa565b91505092915050565b600060208284031215612d9557600080fd5b600082013567ffffffffffffffff811115612daf57600080fd5b612dbb84828501612a39565b91505092915050565b60008060008060808587031215612dda57600080fd5b600085013567ffffffffffffffff811115612df457600080fd5b612e0087828801612a39565b945050602085013567ffffffffffffffff811115612e1d57600080fd5b612e2987828801612a39565b935050604085013567ffffffffffffffff811115612e4657600080fd5b612e5287828801612a39565b925050606085013567ffffffffffffffff811115612e6f57600080fd5b612e7b87828801612a39565b91505092959194509250565b600060208284031215612e9957600080fd5b6000612ea784828501612a63565b91505092915050565b6000612ebc8383613375565b60208301905092915050565b612ed18161398e565b82525050565b6000612ee28261380d565b612eec818561383b565b9350612ef7836137fd565b8060005b83811015612f28578151612f0f8882612eb0565b9750612f1a8361382e565b925050600181019050612efb565b5085935050505092915050565b612f3e816139a0565b82525050565b6000612f4f82613818565b612f59818561384c565b9350612f69818560208601613a11565b612f7281613bac565b840191505092915050565b6000612f8882613823565b612f92818561385d565b9350612fa2818560208601613a11565b612fab81613bac565b840191505092915050565b6000612fc182613823565b612fcb818561386e565b9350612fdb818560208601613a11565b80840191505092915050565b6000612ff460098361386e565b9150612fff82613bbd565b600982019050919050565b600061301760138361386e565b915061302282613be6565b601382019050919050565b600061303a602b8361385d565b915061304582613c0f565b604082019050919050565b600061305d60328361385d565b915061306882613c5e565b604082019050919050565b600061308060268361385d565b915061308b82613cad565b604082019050919050565b60006130a3601c8361385d565b91506130ae82613cfc565b602082019050919050565b60006130c6600b8361386e565b91506130d182613d25565b600b82019050919050565b60006130e960248361385d565b91506130f482613d4e565b604082019050919050565b600061310c60198361385d565b915061311782613d9d565b602082019050919050565b600061312f602c8361385d565b915061313a82613dc6565b604082019050919050565b600061315260388361385d565b915061315d82613e15565b604082019050919050565b600061317560018361386e565b915061318082613e64565b600182019050919050565b6000613198602a8361385d565b91506131a382613e8d565b604082019050919050565b60006131bb60298361385d565b91506131c682613edc565b604082019050919050565b60006131de60028361386e565b91506131e982613f2b565b600282019050919050565b600061320160208361385d565b915061320c82613f54565b602082019050919050565b6000613224602c8361385d565b915061322f82613f7d565b604082019050919050565b600061324760208361385d565b915061325282613fcc565b602082019050919050565b600061326a60298361385d565b915061327582613ff5565b604082019050919050565b600061328d602f8361385d565b915061329882614044565b604082019050919050565b60006132b060218361385d565b91506132bb82614093565b604082019050919050565b60006132d3601d8361386e565b91506132de826140e2565b601d82019050919050565b60006132f660318361385d565b91506133018261410b565b604082019050919050565b600061331960188361385d565b91506133248261415a565b602082019050919050565b600061333c602c8361385d565b915061334782614183565b604082019050919050565b600061335f60108361386e565b915061336a826141d2565b601082019050919050565b61337e816139f8565b82525050565b61338d816139f8565b82525050565b600061339e82612fe7565b91506133aa8287612fb6565b91506133b58261300a565b91506133c18286612fb6565b91506133cc82613168565b91506133d782613352565b91506133e38285612fb6565b91506133ee826130b9565b91506133fa8284612fb6565b9150613405826131d1565b915081905095945050505050565b600061341e826132c6565b915061342a8284612fb6565b915081905092915050565b600060208201905061344a6000830184612ec8565b92915050565b60006080820190506134656000830187612ec8565b6134726020830186612ec8565b61347f6040830185613384565b81810360608301526134918184612f44565b905095945050505050565b600060208201905081810360008301526134b68184612ed7565b905092915050565b60006020820190506134d36000830184612f35565b92915050565b600060208201905081810360008301526134f38184612f7d565b905092915050565b600060208201905081810360008301526135148161302d565b9050919050565b6000602082019050818103600083015261353481613050565b9050919050565b6000602082019050818103600083015261355481613073565b9050919050565b6000602082019050818103600083015261357481613096565b9050919050565b60006020820190508181036000830152613594816130dc565b9050919050565b600060208201905081810360008301526135b4816130ff565b9050919050565b600060208201905081810360008301526135d481613122565b9050919050565b600060208201905081810360008301526135f481613145565b9050919050565b600060208201905081810360008301526136148161318b565b9050919050565b60006020820190508181036000830152613634816131ae565b9050919050565b60006020820190508181036000830152613654816131f4565b9050919050565b6000602082019050818103600083015261367481613217565b9050919050565b600060208201905081810360008301526136948161323a565b9050919050565b600060208201905081810360008301526136b48161325d565b9050919050565b600060208201905081810360008301526136d481613280565b9050919050565b600060208201905081810360008301526136f4816132a3565b9050919050565b60006020820190508181036000830152613714816132e9565b9050919050565b600060208201905081810360008301526137348161330c565b9050919050565b600060208201905081810360008301526137548161332f565b9050919050565b60006020820190506137706000830184613384565b92915050565b6000613780613791565b905061378c8282613a76565b919050565b6000604051905090565b600067ffffffffffffffff8211156137b6576137b5613b7d565b5b6137bf82613bac565b9050602081019050919050565b600067ffffffffffffffff8211156137e7576137e6613b7d565b5b6137f082613bac565b9050602081019050919050565b6000819050602082019050919050565b600081519050919050565b600081519050919050565b600081519050919050565b6000602082019050919050565b600082825260208201905092915050565b600082825260208201905092915050565b600082825260208201905092915050565b600081905092915050565b6000613884826139f8565b915061388f836139f8565b9250827fffffffffffffffffffffffffffffffffffffffffffffffffffffffffffffffff038211156138c4576138c3613af0565b5b828201905092915050565b60006138da826139f8565b91506138e5836139f8565b9250826138f5576138f4613b1f565b5b828204905092915050565b600061390b826139f8565b9150613916836139f8565b9250817fffffffffffffffffffffffffffffffffffffffffffffffffffffffffffffffff048311821515161561394f5761394e613af0565b5b828202905092915050565b6000613965826139f8565b9150613970836139f8565b92508282101561398357613982613af0565b5b828203905092915050565b6000613999826139d8565b9050919050565b60008115159050919050565b60007fffffffff0000000000000000000000000000000000000000000000000000000082169050919050565b600073ffffffffffffffffffffffffffffffffffffffff82169050919050565b6000819050919050565b82818337600083830152505050565b60005b83811015613a2f578082015181840152602081019050613a14565b83811115613a3e576000848401525b50505050565b60006002820490506001821680613a5c57607f821691505b60208210811415613a7057613a6f613b4e565b5b50919050565b613a7f82613bac565b810181811067ffffffffffffffff82111715613a9e57613a9d613b7d565b5b80604052505050565b6000613ab2826139f8565b91507fffffffffffffffffffffffffffffffffffffffffffffffffffffffffffffffff821415613ae557613ae4613af0565b5b600182019050919050565b7f4e487b7100000000000000000000000000000000000000000000000000000000600052601160045260246000fd5b7f4e487b7100000000000000000000000000000000000000000000000000000000600052601260045260246000fd5b7f4e487b7100000000000000000000000000000000000000000000000000000000600052602260045260246000fd5b7f4e487b7100000000000000000000000000000000000000000000000000000000600052604160045260246000fd5b6000601f19601f8301169050919050565b7f7b226e616d65223a220000000000000000000000000000000000000000000000600082015250565b7f222c20226465736372697074696f6e223a202200000000000000000000000000600082015250565b7f455243373231456e756d657261626c653a206f776e657220696e646578206f7560008201527f74206f6620626f756e6473000000000000000000000000000000000000000000602082015250565b7f4552433732313a207472616e7366657220746f206e6f6e20455243373231526560008201527f63656976657220696d706c656d656e7465720000000000000000000000000000602082015250565b7f4f776e61626c653a206e6577206f776e657220697320746865207a65726f206160008201527f6464726573730000000000000000000000000000000000000000000000000000602082015250565b7f4552433732313a20746f6b656e20616c7265616479206d696e74656400000000600082015250565b7f2c2022696d616765223a22000000000000000000000000000000000000000000600082015250565b7f4552433732313a207472616e7366657220746f20746865207a65726f2061646460008201527f7265737300000000000000000000000000000000000000000000000000000000602082015250565b7f4552433732313a20617070726f766520746f2063616c6c657200000000000000600082015250565b7f4552433732313a206f70657261746f7220717565727920666f72206e6f6e657860008201527f697374656e7420746f6b656e0000000000000000000000000000000000000000602082015250565b7f4552433732313a20617070726f76652063616c6c6572206973206e6f74206f7760008201527f6e6572206e6f7220617070726f76656420666f7220616c6c0000000000000000602082015250565b7f2200000000000000000000000000000000000000000000000000000000000000600082015250565b7f4552433732313a2062616c616e636520717565727920666f7220746865207a6560008201527f726f206164647265737300000000000000000000000000000000000000000000602082015250565b7f4552433732313a206f776e657220717565727920666f72206e6f6e657869737460008201527f656e7420746f6b656e0000000000000000000000000000000000000000000000602082015250565b7f227d000000000000000000000000000000000000000000000000000000000000600082015250565b7f4552433732313a206d696e7420746f20746865207a65726f2061646472657373600082015250565b7f4552433732313a20617070726f76656420717565727920666f72206e6f6e657860008201527f697374656e7420746f6b656e0000000000000000000000000000000000000000602082015250565b7f4f776e61626c653a2063616c6c6572206973206e6f7420746865206f776e6572600082015250565b7f4552433732313a207472616e73666572206f6620746f6b656e2074686174206960008201527f73206e6f74206f776e0000000000000000000000000000000000000000000000602082015250565b7f4552433732314d657461646174613a2055524920717565727920666f72206e6f60008201527f6e6578697374656e7420746f6b656e0000000000000000000000000000000000602082015250565b7f4552433732313a20617070726f76616c20746f2063757272656e74206f776e6560008201527f7200000000000000000000000000000000000000000000000000000000000000602082015250565b7f646174613a6170706c69636174696f6e2f6a736f6e3b6261736536342c000000600082015250565b7f4552433732313a207472616e736665722063616c6c6572206973206e6f74206f60008201527f776e6572206e6f7220617070726f766564000000000000000000000000000000602082015250565b7f4e65656420746f2073656e6420302e3038206574686572210000000000000000600082015250565b7f455243373231456e756d657261626c653a20676c6f62616c20696e646578206f60008201527f7574206f6620626f756e64730000000000000000000000000000000000000000602082015250565b7f2c202261747472696275746573223a2000000000000000000000000000000000600082015250565b6142048161398e565b811461420f57600080fd5b50565b61421b816139a0565b811461422657600080fd5b50565b614232816139ac565b811461423d57600080fd5b50565b614249816139f8565b811461425457600080fd5b5056fe4142434445464748494a4b4c4d4e4f505152535455565758595a6162636465666768696a6b6c6d6e6f707172737475767778797a303132333435363738392b2fa26469706673582212208b07cca2b780c6f4a52015b8550e81f3ec7d04fb14f90ee1303ad5c4c1bfd92064736f6c63430008040033",
  "linkReferences": {},
  "deployedLinkReferences": {}
}